{
  "_format": "hh-sol-artifact-1",
  "contractName": "TokenGame",
  "sourceName": "contracts/TokenGame.sol",
  "abi": [
    {
      "inputs": [],
      "stateMutability": "nonpayable",
      "type": "constructor"
    },
    {
      "anonymous": false,
      "inputs": [
        {
          "indexed": true,
          "internalType": "address",
          "name": "player",
          "type": "address"
        },
        {
          "indexed": false,
          "internalType": "string",
          "name": "description",
          "type": "string"
        },
        {
          "indexed": false,
          "internalType": "uint256",
          "name": "reward",
          "type": "uint256"
        }
      ],
      "name": "ChallengeCompleted",
      "type": "event"
    },
    {
      "anonymous": false,
      "inputs": [
        {
          "indexed": true,
          "internalType": "address",
          "name": "creator",
          "type": "address"
        },
        {
          "indexed": false,
          "internalType": "string",
          "name": "description",
          "type": "string"
        },
        {
          "indexed": false,
          "internalType": "uint256",
          "name": "reward",
          "type": "uint256"
        }
      ],
      "name": "ChallengeCreated",
      "type": "event"
    },
    {
      "anonymous": false,
      "inputs": [
        {
          "indexed": true,
          "internalType": "address",
          "name": "player",
          "type": "address"
        },
        {
          "indexed": false,
          "internalType": "uint256",
          "name": "price",
          "type": "uint256"
        }
      ],
      "name": "CharacterBought",
      "type": "event"
    },
    {
      "anonymous": false,
      "inputs": [
        {
          "indexed": true,
          "internalType": "address",
          "name": "player",
          "type": "address"
        },
        {
          "indexed": false,
          "internalType": "string",
          "name": "description",
          "type": "string"
        },
        {
          "indexed": false,
          "internalType": "uint256",
          "name": "reward",
          "type": "uint256"
        }
      ],
      "name": "MissionCompleted",
      "type": "event"
    },
    {
      "anonymous": false,
      "inputs": [
        {
          "indexed": true,
          "internalType": "address",
          "name": "player",
          "type": "address"
        },
        {
          "indexed": false,
          "internalType": "bytes32",
          "name": "playerIdHash",
          "type": "bytes32"
        }
      ],
      "name": "PlayerInitialized",
      "type": "event"
    },
    {
      "anonymous": false,
      "inputs": [
        {
          "indexed": true,
          "internalType": "address",
          "name": "player",
          "type": "address"
        },
        {
          "indexed": false,
          "internalType": "uint256",
          "name": "newPower",
          "type": "uint256"
        }
      ],
      "name": "PowerIncreased",
      "type": "event"
    },
    {
      "anonymous": false,
      "inputs": [
        {
          "indexed": true,
          "internalType": "address",
          "name": "player1",
          "type": "address"
        },
        {
          "indexed": true,
          "internalType": "address",
          "name": "player2",
          "type": "address"
        },
        {
          "indexed": false,
          "internalType": "enum TokenGame.RPSChoice",
          "name": "choice1",
          "type": "uint8"
        },
        {
          "indexed": false,
          "internalType": "enum TokenGame.RPSChoice",
          "name": "choice2",
          "type": "uint8"
        },
        {
          "indexed": false,
          "internalType": "enum TokenGame.RPSResult",
          "name": "result",
          "type": "uint8"
        }
      ],
      "name": "RPSResultAnnounced",
      "type": "event"
    },
    {
      "anonymous": false,
      "inputs": [
        {
          "indexed": true,
          "internalType": "address",
          "name": "player",
          "type": "address"
        },
        {
          "indexed": false,
          "internalType": "uint256",
          "name": "tokensBought",
          "type": "uint256"
        }
      ],
      "name": "TokensBought",
      "type": "event"
    },
    {
      "anonymous": false,
      "inputs": [
        {
          "indexed": true,
          "internalType": "address",
          "name": "sender",
          "type": "address"
        },
        {
          "indexed": false,
          "internalType": "bytes32",
          "name": "receiverIdHash",
          "type": "bytes32"
        },
        {
          "indexed": false,
          "internalType": "uint256",
          "name": "amount",
          "type": "uint256"
        }
      ],
      "name": "TokensSent",
      "type": "event"
    },
    {
      "anonymous": false,
      "inputs": [
        {
          "indexed": true,
          "internalType": "address",
          "name": "player",
          "type": "address"
        },
        {
          "indexed": false,
          "internalType": "uint256",
          "name": "amount",
          "type": "uint256"
        }
      ],
      "name": "TokensStaked",
      "type": "event"
    },
    {
      "anonymous": false,
      "inputs": [
        {
          "indexed": true,
          "internalType": "address",
          "name": "player",
          "type": "address"
        },
        {
          "indexed": false,
          "internalType": "uint256",
          "name": "amount",
          "type": "uint256"
        }
      ],
      "name": "TokensUnstaked",
      "type": "event"
    },
    {
      "anonymous": false,
      "inputs": [
        {
          "indexed": true,
          "internalType": "address",
          "name": "player",
          "type": "address"
        },
        {
          "indexed": false,
          "internalType": "enum TokenGame.SpinResult",
          "name": "result",
          "type": "uint8"
        }
      ],
      "name": "WheelSpun",
      "type": "event"
    },
    {
      "inputs": [],
      "name": "buyCharacter",
      "outputs": [],
      "stateMutability": "nonpayable",
      "type": "function"
    },
    {
      "inputs": [
        {
          "internalType": "uint256",
          "name": "_amount",
          "type": "uint256"
        }
      ],
      "name": "buyTokens",
      "outputs": [],
      "stateMutability": "payable",
      "type": "function"
    },
    {
      "inputs": [
        {
          "internalType": "address",
          "name": "",
          "type": "address"
        }
      ],
      "name": "challengeCompleted",
      "outputs": [
        {
          "internalType": "bool",
          "name": "",
          "type": "bool"
        }
      ],
      "stateMutability": "view",
      "type": "function"
    },
    {
      "inputs": [
        {
          "internalType": "address",
          "name": "",
          "type": "address"
        }
      ],
      "name": "challenges",
      "outputs": [
        {
          "internalType": "string",
          "name": "description",
          "type": "string"
        },
        {
          "internalType": "uint256",
          "name": "reward",
          "type": "uint256"
        },
        {
          "internalType": "bool",
          "name": "active",
          "type": "bool"
        }
      ],
      "stateMutability": "view",
      "type": "function"
    },
    {
      "inputs": [],
      "name": "characterPrice",
      "outputs": [
        {
          "internalType": "uint256",
          "name": "",
          "type": "uint256"
        }
      ],
      "stateMutability": "view",
      "type": "function"
    },
    {
      "inputs": [],
      "name": "completeChallenge",
      "outputs": [],
      "stateMutability": "nonpayable",
      "type": "function"
    },
    {
      "inputs": [
        {
          "internalType": "string",
          "name": "",
          "type": "string"
        }
      ],
      "name": "completeMission",
      "outputs": [],
      "stateMutability": "nonpayable",
      "type": "function"
    },
    {
      "inputs": [
        {
          "internalType": "address",
          "name": "",
          "type": "address"
        }
      ],
      "name": "completedChallengesCount",
      "outputs": [
        {
          "internalType": "uint256",
          "name": "",
          "type": "uint256"
        }
      ],
      "stateMutability": "view",
      "type": "function"
    },
    {
      "inputs": [
        {
          "internalType": "string",
          "name": "_description",
          "type": "string"
        },
        {
          "internalType": "uint256",
          "name": "_reward",
          "type": "uint256"
        }
      ],
      "name": "createChallenge",
      "outputs": [],
      "stateMutability": "nonpayable",
      "type": "function"
    },
    {
      "inputs": [],
      "name": "currentWeather",
      "outputs": [
        {
          "internalType": "enum TokenGame.Weather",
          "name": "",
          "type": "uint8"
        }
      ],
      "stateMutability": "view",
      "type": "function"
    },
    {
      "inputs": [
        {
          "internalType": "bytes32",
          "name": "_playerIdHash",
          "type": "bytes32"
        }
      ],
      "name": "getBalance",
      "outputs": [
        {
          "internalType": "uint256",
          "name": "",
          "type": "uint256"
        }
      ],
      "stateMutability": "view",
      "type": "function"
    },
    {
      "inputs": [
        {
          "internalType": "address",
          "name": "_player",
          "type": "address"
        }
      ],
      "name": "getPlayerIdHash",
      "outputs": [
        {
          "internalType": "bytes32",
          "name": "",
          "type": "bytes32"
        }
      ],
      "stateMutability": "view",
      "type": "function"
    },
    {
      "inputs": [
        {
          "internalType": "bytes32",
          "name": "_playerIdHash",
          "type": "bytes32"
        }
      ],
      "name": "getPower",
      "outputs": [
        {
          "internalType": "uint256",
          "name": "",
          "type": "uint256"
        }
      ],
      "stateMutability": "view",
      "type": "function"
    },
    {
      "inputs": [
        {
          "internalType": "uint256",
          "name": "_powerIncrease",
          "type": "uint256"
        }
      ],
      "name": "increasePower",
      "outputs": [],
      "stateMutability": "nonpayable",
      "type": "function"
    },
    {
      "inputs": [
        {
          "internalType": "bytes32",
          "name": "_playerIdHash",
          "type": "bytes32"
        }
      ],
      "name": "initializePlayer",
      "outputs": [],
      "stateMutability": "nonpayable",
      "type": "function"
    },
    {
      "inputs": [
        {
          "internalType": "bytes32",
          "name": "",
          "type": "bytes32"
        }
      ],
      "name": "isPlayerIdTaken",
      "outputs": [
        {
          "internalType": "bool",
          "name": "",
          "type": "bool"
        }
      ],
      "stateMutability": "view",
      "type": "function"
    },
    {
      "inputs": [
        {
          "internalType": "address",
          "name": "",
          "type": "address"
        }
      ],
      "name": "lastSpinTimestamp",
      "outputs": [
        {
          "internalType": "uint256",
          "name": "",
          "type": "uint256"
        }
      ],
      "stateMutability": "view",
      "type": "function"
    },
    {
      "inputs": [],
      "name": "missionReward",
      "outputs": [
        {
          "internalType": "uint256",
          "name": "",
          "type": "uint256"
        }
      ],
      "stateMutability": "view",
      "type": "function"
    },
    {
      "inputs": [
        {
          "internalType": "address",
          "name": "",
          "type": "address"
        }
      ],
      "name": "playerMissions",
      "outputs": [
        {
          "internalType": "string",
          "name": "description",
          "type": "string"
        },
        {
          "internalType": "uint256",
          "name": "targetWinCount",
          "type": "uint256"
        },
        {
          "internalType": "uint256",
          "name": "completedWinCount",
          "type": "uint256"
        },
        {
          "internalType": "bool",
          "name": "completed",
          "type": "bool"
        }
      ],
      "stateMutability": "view",
      "type": "function"
    },
    {
      "inputs": [
        {
          "internalType": "bytes32",
          "name": "_receiverIdHash",
          "type": "bytes32"
        },
        {
          "internalType": "uint256",
          "name": "_amount",
          "type": "uint256"
        }
      ],
      "name": "sendTokens",
      "outputs": [],
      "stateMutability": "nonpayable",
      "type": "function"
    },
    {
      "inputs": [
        {
          "internalType": "enum TokenGame.Weather",
          "name": "_weather",
          "type": "uint8"
        }
      ],
      "name": "setWeather",
      "outputs": [],
      "stateMutability": "nonpayable",
      "type": "function"
    },
    {
      "inputs": [],
      "name": "spinCooldown",
      "outputs": [
        {
          "internalType": "uint256",
          "name": "",
          "type": "uint256"
        }
      ],
      "stateMutability": "view",
      "type": "function"
    },
    {
      "inputs": [],
      "name": "spinWheel",
      "outputs": [],
      "stateMutability": "nonpayable",
      "type": "function"
    },
    {
      "inputs": [
        {
          "internalType": "uint256",
          "name": "_amount",
          "type": "uint256"
        }
      ],
      "name": "stakeTokens",
      "outputs": [],
      "stateMutability": "nonpayable",
      "type": "function"
    },
    {
      "inputs": [],
      "name": "startingBalance",
      "outputs": [
        {
          "internalType": "uint256",
          "name": "",
          "type": "uint256"
        }
      ],
      "stateMutability": "view",
      "type": "function"
    },
    {
      "inputs": [
        {
          "internalType": "enum TokenGame.RPSChoice",
          "name": "choice",
          "type": "uint8"
        }
      ],
      "name": "submitRPSChoice",
      "outputs": [],
      "stateMutability": "nonpayable",
      "type": "function"
    },
    {
      "inputs": [],
      "name": "tokenName",
      "outputs": [
        {
          "internalType": "string",
          "name": "",
          "type": "string"
        }
      ],
      "stateMutability": "view",
      "type": "function"
    },
    {
      "inputs": [],
      "name": "tokenPrice",
      "outputs": [
        {
          "internalType": "uint256",
          "name": "",
          "type": "uint256"
        }
      ],
      "stateMutability": "view",
      "type": "function"
    },
    {
      "inputs": [
        {
          "internalType": "uint256",
          "name": "_amount",
          "type": "uint256"
        }
      ],
      "name": "unstakeTokens",
      "outputs": [],
      "stateMutability": "nonpayable",
      "type": "function"
    },
    {
      "inputs": [
        {
          "internalType": "uint256",
          "name": "_newPower",
          "type": "uint256"
        }
      ],
      "name": "upgradeCharacterAbilities",
      "outputs": [],
      "stateMutability": "nonpayable",
      "type": "function"
    }
  ],
  "bytecode": "0x60806040526509184e72a000600055600560015560146002556201518060115560056013556000601460006101000a81548160ff021916908360028111156200004d576200004c62000170565b5b02179055503480156200005f57600080fd5b50600033426040516020016200007792919062000252565b604051602081830303815290604052805190602001209050600254600360008381526020019081526020016000208190555080600460003373ffffffffffffffffffffffffffffffffffffffff1673ffffffffffffffffffffffffffffffffffffffff1681526020019081526020016000208190555060016005600083815260200190815260200160002060006101000a81548160ff0219169083151502179055503373ffffffffffffffffffffffffffffffffffffffff167fe9f0821463d0009f11fee83bfe80ca66f5c8345cc599bbb23277f3df4af53585826040516200016191906200029d565b60405180910390a250620002ba565b7f4e487b7100000000000000000000000000000000000000000000000000000000600052602160045260246000fd5b600073ffffffffffffffffffffffffffffffffffffffff82169050919050565b6000620001cc826200019f565b9050919050565b60008160601b9050919050565b6000620001ed82620001d3565b9050919050565b60006200020182620001e0565b9050919050565b6200021d6200021782620001bf565b620001f4565b82525050565b6000819050919050565b6000819050919050565b6200024c620002468262000223565b6200022d565b82525050565b600062000260828562000208565b60148201915062000272828462000237565b6020820191508190509392505050565b6000819050919050565b620002978162000282565b82525050565b6000602082019050620002b460008301846200028c565b92915050565b61481a80620002ca6000396000f3fe6080604052600436106101cd5760003560e01c80636c02a931116100f757806394bd2d3b11610095578063abdef39911610064578063abdef3991461068c578063bcece5eb146106b7578063d3d03056146106ce578063f4442496146106f9576101cd565b806394bd2d3b146105f6578063955fe0a01461062157806398c9f1df1461064c5780639beb6cde14610675576101cd565b80637547c7a3116100d15780637547c7a3146105285780637ff9b596146105515780638da8b3291461057c5780638e739461146105b9576101cd565b80636c02a931146104ab5780636df3eb58146104d65780636fd52778146104ff576101cd565b80631ce24f541161016f5780634cbbdc261161013e5780634cbbdc26146103f05780634dc4c64914610419578063559de05d14610459578063608e4dd014610482576101cd565b80631ce24f541461031d57806326550c691461035a578063313c12eb146103975780633610724e146103d4576101cd565b806314d4a4c0116101ab57806314d4a4c01461027757806315ecef92146102a057806317caf103146102b75780631bb3e1eb146102f4576101cd565b80630270f2ba146101d257806303aaa5331461020f57806308b43a1914610238575b600080fd5b3480156101de57600080fd5b506101f960048036038101906101f4919061301b565b610724565b6040516102069190613063565b60405180910390f35b34801561021b57600080fd5b50610236600480360381019061023191906130b4565b610744565b005b34801561024457600080fd5b5061025f600480360381019061025a919061313f565b610936565b60405161026e9392919061320b565b60405180910390f35b34801561028357600080fd5b5061029e60048036038101906102999190613249565b6109f5565b005b3480156102ac57600080fd5b506102b5610cf1565b005b3480156102c357600080fd5b506102de60048036038101906102d9919061313f565b611059565b6040516102eb9190613289565b60405180910390f35b34801561030057600080fd5b5061031b6004803603810190610316919061301b565b611071565b005b34801561032957600080fd5b50610344600480360381019061033f919061301b565b6111ad565b6040516103519190613289565b60405180910390f35b34801561036657600080fd5b50610381600480360381019061037c919061313f565b6111ca565b60405161038e91906132b3565b60405180910390f35b3480156103a357600080fd5b506103be60048036038101906103b9919061313f565b611213565b6040516103cb9190613063565b60405180910390f35b6103ee60048036038101906103e991906130b4565b611233565b005b3480156103fc57600080fd5b50610417600480360381019061041291906132f3565b611394565b005b34801561042557600080fd5b50610440600480360381019061043b919061313f565b611bda565b6040516104509493929190613320565b60405180910390f35b34801561046557600080fd5b50610480600480360381019061047b91906130b4565b611c9f565b005b34801561048e57600080fd5b506104a960048036038101906104a491906130b4565b611e91565b005b3480156104b757600080fd5b506104c06120e8565b6040516104cd919061336c565b60405180910390f35b3480156104e257600080fd5b506104fd60048036038101906104f891906133f3565b612121565b005b34801561050b57600080fd5b5061052660048036038101906105219190613465565b6123d6565b005b34801561053457600080fd5b5061054f600480360381019061054a91906130b4565b612403565b005b34801561055d57600080fd5b5061056661265a565b6040516105739190613289565b60405180910390f35b34801561058857600080fd5b506105a3600480360381019061059e919061313f565b612660565b6040516105b09190613289565b60405180910390f35b3480156105c557600080fd5b506105e060048036038101906105db919061301b565b612678565b6040516105ed9190613289565b60405180910390f35b34801561060257600080fd5b5061060b612695565b6040516106189190613289565b60405180910390f35b34801561062d57600080fd5b5061063661269b565b6040516106439190613509565b60405180910390f35b34801561065857600080fd5b50610673600480360381019061066e9190613654565b6126ae565b005b34801561068157600080fd5b5061068a612841565b005b34801561069857600080fd5b506106a1612ca2565b6040516106ae9190613289565b60405180910390f35b3480156106c357600080fd5b506106cc612ca8565b005b3480156106da57600080fd5b506106e3612e62565b6040516106f09190613289565b60405180910390f35b34801561070557600080fd5b5061070e612e68565b60405161071b9190613289565b60405180910390f35b60056020528060005260406000206000915054906101000a900460ff1681565b60056000600460003373ffffffffffffffffffffffffffffffffffffffff1673ffffffffffffffffffffffffffffffffffffffff16815260200190815260200160002054815260200190815260200160002060009054906101000a900460ff166107e3576040517f08c379a00000000000000000000000000000000000000000000000000000000081526004016107da906136fc565b60405180910390fd5b6000600460003373ffffffffffffffffffffffffffffffffffffffff1673ffffffffffffffffffffffffffffffffffffffff168152602001908152602001600020549050816003600083815260200190815260200160002054101561087d576040517f08c379a000000000000000000000000000000000000000000000000000000000815260040161087490613768565b60405180910390fd5b816003600083815260200190815260200160002060008282546108a091906137b7565b9250508190555081600b600083815260200190815260200160002060008282546108ca91906137eb565b925050819055503373ffffffffffffffffffffffffffffffffffffffff167f7cb6ed9ab3c494e5dae6f6a137de115769e08b31ce667494edd37f75c84a1016600b60008481526020019081526020016000205460405161092a9190613289565b60405180910390a25050565b60086020528060005260406000206000915090508060000180546109599061384e565b80601f01602080910402602001604051908101604052809291908181526020018280546109859061384e565b80156109d25780601f106109a7576101008083540402835291602001916109d2565b820191906000526020600020905b8154815290600101906020018083116109b557829003601f168201915b5050505050908060010154908060020160009054906101000a900460ff16905083565b60056000600460003373ffffffffffffffffffffffffffffffffffffffff1673ffffffffffffffffffffffffffffffffffffffff16815260200190815260200160002054815260200190815260200160002060009054906101000a900460ff16610a94576040517f08c379a0000000000000000000000000000000000000000000000000000000008152600401610a8b906136fc565b60405180910390fd5b6005600083815260200190815260200160002060009054906101000a900460ff16610af4576040517f08c379a0000000000000000000000000000000000000000000000000000000008152600401610aeb906138cb565b60405180910390fd5b81600460003373ffffffffffffffffffffffffffffffffffffffff1673ffffffffffffffffffffffffffffffffffffffff1681526020019081526020016000205403610b75576040517f08c379a0000000000000000000000000000000000000000000000000000000008152600401610b6c90613937565b60405180910390fd5b8060036000600460003373ffffffffffffffffffffffffffffffffffffffff1673ffffffffffffffffffffffffffffffffffffffff168152602001908152602001600020548152602001908152602001600020541015610c0a576040517f08c379a0000000000000000000000000000000000000000000000000000000008152600401610c01906139a3565b60405180910390fd5b8060036000600460003373ffffffffffffffffffffffffffffffffffffffff1673ffffffffffffffffffffffffffffffffffffffff1681526020019081526020016000205481526020019081526020016000206000828254610c6c91906137b7565b9250508190555080600360008481526020019081526020016000206000828254610c9691906137eb565b925050819055503373ffffffffffffffffffffffffffffffffffffffff167fb06b37b60005577b742ec18836d535bb8461f785809d1bf2f9151f2a311df1538383604051610ce59291906139c3565b60405180910390a25050565b60056000600460003373ffffffffffffffffffffffffffffffffffffffff1673ffffffffffffffffffffffffffffffffffffffff16815260200190815260200160002054815260200190815260200160002060009054906101000a900460ff16610d90576040517f08c379a0000000000000000000000000000000000000000000000000000000008152600401610d87906136fc565b60405180910390fd5b601154601060003373ffffffffffffffffffffffffffffffffffffffff1673ffffffffffffffffffffffffffffffffffffffff1681526020019081526020016000205442610dde91906137b7565b1015610e1f576040517f08c379a0000000000000000000000000000000000000000000000000000000008152600401610e1690613a38565b60405180910390fd5b60014311610e62576040517f08c379a0000000000000000000000000000000000000000000000000000000008152600401610e5990613aa4565b60405180910390fd5b6000600143610e7191906137b7565b4090506000801b8103610eb9576040517f08c379a0000000000000000000000000000000000000000000000000000000008152600401610eb090613b10565b60405180910390fd5b60008141423345604051602001610ed4959493929190613bf5565b6040516020818303038152906040528051906020012060001c905060006064334243604051602001610f0893929190613c54565b6040516020818303038152906040528051906020012060001c83610f2c91906137eb565b610f369190613cc0565b90506000601e821015610fbc57600090506000600a90508060036000600460003373ffffffffffffffffffffffffffffffffffffffff1673ffffffffffffffffffffffffffffffffffffffff1681526020019081526020016000205481526020019081526020016000206000828254610faf91906137eb565b9250508190555050610fc1565b600290505b42601060003373ffffffffffffffffffffffffffffffffffffffff1673ffffffffffffffffffffffffffffffffffffffff168152602001908152602001600020819055503373ffffffffffffffffffffffffffffffffffffffff167fce87be6e5b178343d3a83af62e2d3cdd932ae4bd84486d400b8cb37261c935e48260405161104b9190613d39565b60405180910390a250505050565b60106020528060005260406000206000915090505481565b6005600082815260200190815260200160002060009054906101000a900460ff16156110d2576040517f08c379a00000000000000000000000000000000000000000000000000000000081526004016110c990613da0565b60405180910390fd5b600254600360008381526020019081526020016000208190555080600460003373ffffffffffffffffffffffffffffffffffffffff1673ffffffffffffffffffffffffffffffffffffffff1681526020019081526020016000208190555060016005600083815260200190815260200160002060006101000a81548160ff0219169083151502179055503373ffffffffffffffffffffffffffffffffffffffff167fe9f0821463d0009f11fee83bfe80ca66f5c8345cc599bbb23277f3df4af53585826040516111a291906132b3565b60405180910390a250565b600060076000838152602001908152602001600020549050919050565b6000600460008373ffffffffffffffffffffffffffffffffffffffff1673ffffffffffffffffffffffffffffffffffffffff168152602001908152602001600020549050919050565b60096020528060005260406000206000915054906101000a900460ff1681565b60003411611276576040517f08c379a000000000000000000000000000000000000000000000000000000000815260040161126d90613e0c565b60405180910390fd5b60008082146112855781611294565b600054346112939190613e2c565b5b9050600081116112d9576040517f08c379a00000000000000000000000000000000000000000000000000000000081526004016112d090613ea9565b60405180910390fd5b8060036000600460003373ffffffffffffffffffffffffffffffffffffffff1673ffffffffffffffffffffffffffffffffffffffff168152602001908152602001600020548152602001908152602001600020600082825461133b91906137eb565b925050819055503373ffffffffffffffffffffffffffffffffffffffff167f745f661b8143944fb883f50694ebed3a871e43c451d9d4bf4648a9d551d7e47a826040516113889190613289565b60405180910390a25050565b60056000600460003373ffffffffffffffffffffffffffffffffffffffff1673ffffffffffffffffffffffffffffffffffffffff16815260200190815260200160002054815260200190815260200160002060009054906101000a900460ff16611433576040517f08c379a000000000000000000000000000000000000000000000000000000000815260040161142a906136fc565b60405180910390fd5b600d60003373ffffffffffffffffffffffffffffffffffffffff1673ffffffffffffffffffffffffffffffffffffffff16815260200190815260200160002060009054906101000a900460ff16156114c0576040517f08c379a00000000000000000000000000000000000000000000000000000000081526004016114b790613f3b565b60405180910390fd5b600160038111156114d4576114d3613492565b5b8160038111156114e7576114e6613492565b5b10158015611519575060038081111561150357611502613492565b5b81600381111561151657611515613492565b5b11155b611558576040517f08c379a000000000000000000000000000000000000000000000000000000000815260040161154f90613fa7565b60405180910390fd5b6001600d60003373ffffffffffffffffffffffffffffffffffffffff1673ffffffffffffffffffffffffffffffffffffffff16815260200190815260200160002060006101000a81548160ff02191690831515021790555080600c60003373ffffffffffffffffffffffffffffffffffffffff1673ffffffffffffffffffffffffffffffffffffffff16815260200190815260200160002060006101000a81548160ff0219169083600381111561161257611611613492565b5b0217905550600073ffffffffffffffffffffffffffffffffffffffff16600e60009054906101000a900473ffffffffffffffffffffffffffffffffffffffff1673ffffffffffffffffffffffffffffffffffffffff16036116b35733600e60006101000a81548173ffffffffffffffffffffffffffffffffffffffff021916908373ffffffffffffffffffffffffffffffffffffffff160217905550611bd7565b600073ffffffffffffffffffffffffffffffffffffffff16600f60009054906101000a900473ffffffffffffffffffffffffffffffffffffffff1673ffffffffffffffffffffffffffffffffffffffff1614801561175f5750600e60009054906101000a900473ffffffffffffffffffffffffffffffffffffffff1673ffffffffffffffffffffffffffffffffffffffff163373ffffffffffffffffffffffffffffffffffffffff1614155b15611bd65733600f60006101000a81548173ffffffffffffffffffffffffffffffffffffffff021916908373ffffffffffffffffffffffffffffffffffffffff1602179055506000600c6000600e60009054906101000a900473ffffffffffffffffffffffffffffffffffffffff1673ffffffffffffffffffffffffffffffffffffffff1673ffffffffffffffffffffffffffffffffffffffff16815260200190815260200160002060009054906101000a900460ff1690506000600c6000600f60009054906101000a900473ffffffffffffffffffffffffffffffffffffffff1673ffffffffffffffffffffffffffffffffffffffff1673ffffffffffffffffffffffffffffffffffffffff16815260200190815260200160002060009054906101000a900460ff16905060006118978383612e6e565b9050600f60009054906101000a900473ffffffffffffffffffffffffffffffffffffffff1673ffffffffffffffffffffffffffffffffffffffff16600e60009054906101000a900473ffffffffffffffffffffffffffffffffffffffff1673ffffffffffffffffffffffffffffffffffffffff167f0ff8e1ad2d5244d5d82398043968af27aac2dbc8f99fed53e6194d767656a21785858560405161193e93929190614057565b60405180910390a36000600e60006101000a81548173ffffffffffffffffffffffffffffffffffffffff021916908373ffffffffffffffffffffffffffffffffffffffff1602179055506000600f60006101000a81548173ffffffffffffffffffffffffffffffffffffffff021916908373ffffffffffffffffffffffffffffffffffffffff1602179055506000600d6000600e60009054906101000a900473ffffffffffffffffffffffffffffffffffffffff1673ffffffffffffffffffffffffffffffffffffffff1673ffffffffffffffffffffffffffffffffffffffff16815260200190815260200160002060006101000a81548160ff0219169083151502179055506000600d6000600f60009054906101000a900473ffffffffffffffffffffffffffffffffffffffff1673ffffffffffffffffffffffffffffffffffffffff1673ffffffffffffffffffffffffffffffffffffffff16815260200190815260200160002060006101000a81548160ff0219169083151502179055506000600c6000600e60009054906101000a900473ffffffffffffffffffffffffffffffffffffffff1673ffffffffffffffffffffffffffffffffffffffff1673ffffffffffffffffffffffffffffffffffffffff16815260200190815260200160002060006101000a81548160ff02191690836003811115611b4357611b42613492565b5b02179055506000600c6000600f60009054906101000a900473ffffffffffffffffffffffffffffffffffffffff1673ffffffffffffffffffffffffffffffffffffffff1673ffffffffffffffffffffffffffffffffffffffff16815260200190815260200160002060006101000a81548160ff02191690836003811115611bcd57611bcc613492565b5b02179055505050505b5b50565b6012602052806000526040600020600091509050806000018054611bfd9061384e565b80601f0160208091040260200160405190810160405280929190818152602001828054611c299061384e565b8015611c765780601f10611c4b57610100808354040283529160200191611c76565b820191906000526020600020905b815481529060010190602001808311611c5957829003601f168201915b5050505050908060010154908060020154908060030160009054906101000a900460ff16905084565b60056000600460003373ffffffffffffffffffffffffffffffffffffffff1673ffffffffffffffffffffffffffffffffffffffff16815260200190815260200160002054815260200190815260200160002060009054906101000a900460ff16611d3e576040517f08c379a0000000000000000000000000000000000000000000000000000000008152600401611d35906136fc565b60405180910390fd5b6000600460003373ffffffffffffffffffffffffffffffffffffffff1673ffffffffffffffffffffffffffffffffffffffff1681526020019081526020016000205490508160036000838152602001908152602001600020541015611dd8576040517f08c379a0000000000000000000000000000000000000000000000000000000008152600401611dcf90614100565b60405180910390fd5b81600360008381526020019081526020016000206000828254611dfb91906137b7565b9250508190555081600760008381526020019081526020016000206000828254611e2591906137eb565b925050819055503373ffffffffffffffffffffffffffffffffffffffff167f7cb6ed9ab3c494e5dae6f6a137de115769e08b31ce667494edd37f75c84a10166007600084815260200190815260200160002054604051611e859190613289565b60405180910390a25050565b60056000600460003373ffffffffffffffffffffffffffffffffffffffff1673ffffffffffffffffffffffffffffffffffffffff16815260200190815260200160002054815260200190815260200160002060009054906101000a900460ff16611f30576040517f08c379a0000000000000000000000000000000000000000000000000000000008152600401611f27906136fc565b60405180910390fd5b8060066000600460003373ffffffffffffffffffffffffffffffffffffffff1673ffffffffffffffffffffffffffffffffffffffff168152602001908152602001600020548152602001908152602001600020541015611fc5576040517f08c379a0000000000000000000000000000000000000000000000000000000008152600401611fbc9061416c565b60405180910390fd5b8060066000600460003373ffffffffffffffffffffffffffffffffffffffff1673ffffffffffffffffffffffffffffffffffffffff168152602001908152602001600020548152602001908152602001600020600082825461202791906137b7565b925050819055508060036000600460003373ffffffffffffffffffffffffffffffffffffffff1673ffffffffffffffffffffffffffffffffffffffff168152602001908152602001600020548152602001908152602001600020600082825461209091906137eb565b925050819055503373ffffffffffffffffffffffffffffffffffffffff167f9845e367b683334e5c0b12d7b81721ac518e649376fa65e3d68324e8f34f2679826040516120dd9190613289565b60405180910390a250565b6040518060400160405280600381526020017f485352000000000000000000000000000000000000000000000000000000000081525081565b60056000600460003373ffffffffffffffffffffffffffffffffffffffff1673ffffffffffffffffffffffffffffffffffffffff16815260200190815260200160002054815260200190815260200160002060009054906101000a900460ff166121c0576040517f08c379a00000000000000000000000000000000000000000000000000000000081526004016121b7906136fc565b60405180910390fd5b6000601260003373ffffffffffffffffffffffffffffffffffffffff1673ffffffffffffffffffffffffffffffffffffffff16815260200190815260200160002090508060030160009054906101000a900460ff1615612255576040517f08c379a000000000000000000000000000000000000000000000000000000000815260040161224c906141d8565b60405180910390fd5b806001015460076000600460003373ffffffffffffffffffffffffffffffffffffffff1673ffffffffffffffffffffffffffffffffffffffff1681526020019081526020016000205481526020019081526020016000205410156122ee576040517f08c379a00000000000000000000000000000000000000000000000000000000081526004016122e590614244565b60405180910390fd5b60018160030160006101000a81548160ff0219169083151502179055506000600460003373ffffffffffffffffffffffffffffffffffffffff1673ffffffffffffffffffffffffffffffffffffffff16815260200190815260200160002054905060135460036000838152602001908152602001600020600082825461237491906137eb565b925050819055503373ffffffffffffffffffffffffffffffffffffffff167f3336e9b19b7b56ae2c4d322bca174cacd612104e594f02c51d5ac18ad1d8431d836000016013546040516123c89291906142fd565b60405180910390a250505050565b80601460006101000a81548160ff021916908360028111156123fb576123fa613492565b5b021790555050565b60056000600460003373ffffffffffffffffffffffffffffffffffffffff1673ffffffffffffffffffffffffffffffffffffffff16815260200190815260200160002054815260200190815260200160002060009054906101000a900460ff166124a2576040517f08c379a0000000000000000000000000000000000000000000000000000000008152600401612499906136fc565b60405180910390fd5b8060036000600460003373ffffffffffffffffffffffffffffffffffffffff1673ffffffffffffffffffffffffffffffffffffffff168152602001908152602001600020548152602001908152602001600020541015612537576040517f08c379a000000000000000000000000000000000000000000000000000000000815260040161252e90614379565b60405180910390fd5b8060036000600460003373ffffffffffffffffffffffffffffffffffffffff1673ffffffffffffffffffffffffffffffffffffffff168152602001908152602001600020548152602001908152602001600020600082825461259991906137b7565b925050819055508060066000600460003373ffffffffffffffffffffffffffffffffffffffff1673ffffffffffffffffffffffffffffffffffffffff168152602001908152602001600020548152602001908152602001600020600082825461260291906137eb565b925050819055503373ffffffffffffffffffffffffffffffffffffffff167fb539ca1e5c8d398ddf1c41c30166f33404941683be4683319b57669a93dad4ef8260405161264f9190613289565b60405180910390a250565b60005481565b600a6020528060005260406000206000915090505481565b600060036000838152602001908152602001600020549050919050565b60025481565b601460009054906101000a900460ff1681565b60056000600460003373ffffffffffffffffffffffffffffffffffffffff1673ffffffffffffffffffffffffffffffffffffffff16815260200190815260200160002054815260200190815260200160002060009054906101000a900460ff1661274d576040517f08c379a0000000000000000000000000000000000000000000000000000000008152600401612744906136fc565b60405180910390fd5b604051806060016040528083815260200182815260200160011515815250600860003373ffffffffffffffffffffffffffffffffffffffff1673ffffffffffffffffffffffffffffffffffffffff16815260200190815260200160002060008201518160000190816127bf9190614530565b506020820151816001015560408201518160020160006101000a81548160ff0219169083151502179055509050503373ffffffffffffffffffffffffffffffffffffffff167fb92b508ece8b8953c73472a1c5584fa240c168063d1450a732310be6d9d07b2f8383604051612835929190614602565b60405180910390a25050565b60056000600460003373ffffffffffffffffffffffffffffffffffffffff1673ffffffffffffffffffffffffffffffffffffffff16815260200190815260200160002054815260200190815260200160002060009054906101000a900460ff166128e0576040517f08c379a00000000000000000000000000000000000000000000000000000000081526004016128d7906136fc565b60405180910390fd5b600860003373ffffffffffffffffffffffffffffffffffffffff1673ffffffffffffffffffffffffffffffffffffffff16815260200190815260200160002060020160009054906101000a900460ff1661296f576040517f08c379a00000000000000000000000000000000000000000000000000000000081526004016129669061467e565b60405180910390fd5b600960003373ffffffffffffffffffffffffffffffffffffffff1673ffffffffffffffffffffffffffffffffffffffff16815260200190815260200160002060009054906101000a900460ff16156129fc576040517f08c379a00000000000000000000000000000000000000000000000000000000081526004016129f3906146ea565b60405180910390fd5b6000600460003373ffffffffffffffffffffffffffffffffffffffff1673ffffffffffffffffffffffffffffffffffffffff168152602001908152602001600020549050600860003373ffffffffffffffffffffffffffffffffffffffff1673ffffffffffffffffffffffffffffffffffffffff16815260200190815260200160002060010154600360008381526020019081526020016000206000828254612aa591906137eb565b925050819055506001600960003373ffffffffffffffffffffffffffffffffffffffff1673ffffffffffffffffffffffffffffffffffffffff16815260200190815260200160002060006101000a81548160ff021916908315150217905550600a60003373ffffffffffffffffffffffffffffffffffffffff1673ffffffffffffffffffffffffffffffffffffffff1681526020019081526020016000206000815480929190612b549061470a565b91905055503373ffffffffffffffffffffffffffffffffffffffff167fd5dd116eecf0c06e87567b9700a25b331036e323bcbec3c3e25c48bd91a550bf600860003373ffffffffffffffffffffffffffffffffffffffff1673ffffffffffffffffffffffffffffffffffffffff168152602001908152602001600020600001600860003373ffffffffffffffffffffffffffffffffffffffff1673ffffffffffffffffffffffffffffffffffffffff16815260200190815260200160002060010154604051612c249291906142fd565b60405180910390a26003600a60003373ffffffffffffffffffffffffffffffffffffffff1673ffffffffffffffffffffffffffffffffffffffff1681526020019081526020016000205410612c9f57600a600760008381526020019081526020016000206000828254612c9791906137eb565b925050819055505b50565b60015481565b60056000600460003373ffffffffffffffffffffffffffffffffffffffff1673ffffffffffffffffffffffffffffffffffffffff16815260200190815260200160002054815260200190815260200160002060009054906101000a900460ff16612d47576040517f08c379a0000000000000000000000000000000000000000000000000000000008152600401612d3e906136fc565b60405180910390fd5b6000600460003373ffffffffffffffffffffffffffffffffffffffff1673ffffffffffffffffffffffffffffffffffffffff16815260200190815260200160002054905060015460036000838152602001908152602001600020541015612de3576040517f08c379a0000000000000000000000000000000000000000000000000000000008152600401612dda906147c4565b60405180910390fd5b600154600360008381526020019081526020016000206000828254612e0891906137b7565b925050819055503373ffffffffffffffffffffffffffffffffffffffff167f1493adea3915bcbd971fe52b655e17cd5c6994e7685ad29b17a985401798ab17600154604051612e579190613289565b60405180910390a250565b60115481565b60135481565b6000816003811115612e8357612e82613492565b5b836003811115612e9657612e95613492565b5b03612ea45760009050612fcb565b60016003811115612eb857612eb7613492565b5b836003811115612ecb57612eca613492565b5b148015612efb5750600380811115612ee657612ee5613492565b5b826003811115612ef957612ef8613492565b5b145b80612f5a575060026003811115612f1557612f14613492565b5b836003811115612f2857612f27613492565b5b148015612f59575060016003811115612f4457612f43613492565b5b826003811115612f5757612f56613492565b5b145b5b80612fb85750600380811115612f7357612f72613492565b5b836003811115612f8657612f85613492565b5b148015612fb7575060026003811115612fa257612fa1613492565b5b826003811115612fb557612fb4613492565b5b145b5b15612fc65760019050612fcb565b600290505b92915050565b6000604051905090565b600080fd5b600080fd5b6000819050919050565b612ff881612fe5565b811461300357600080fd5b50565b60008135905061301581612fef565b92915050565b60006020828403121561303157613030612fdb565b5b600061303f84828501613006565b91505092915050565b60008115159050919050565b61305d81613048565b82525050565b60006020820190506130786000830184613054565b92915050565b6000819050919050565b6130918161307e565b811461309c57600080fd5b50565b6000813590506130ae81613088565b92915050565b6000602082840312156130ca576130c9612fdb565b5b60006130d88482850161309f565b91505092915050565b600073ffffffffffffffffffffffffffffffffffffffff82169050919050565b600061310c826130e1565b9050919050565b61311c81613101565b811461312757600080fd5b50565b60008135905061313981613113565b92915050565b60006020828403121561315557613154612fdb565b5b60006131638482850161312a565b91505092915050565b600081519050919050565b600082825260208201905092915050565b60005b838110156131a657808201518184015260208101905061318b565b60008484015250505050565b6000601f19601f8301169050919050565b60006131ce8261316c565b6131d88185613177565b93506131e8818560208601613188565b6131f1816131b2565b840191505092915050565b6132058161307e565b82525050565b6000606082019050818103600083015261322581866131c3565b905061323460208301856131fc565b6132416040830184613054565b949350505050565b600080604083850312156132605761325f612fdb565b5b600061326e85828601613006565b925050602061327f8582860161309f565b9150509250929050565b600060208201905061329e60008301846131fc565b92915050565b6132ad81612fe5565b82525050565b60006020820190506132c860008301846132a4565b92915050565b600481106132db57600080fd5b50565b6000813590506132ed816132ce565b92915050565b60006020828403121561330957613308612fdb565b5b6000613317848285016132de565b91505092915050565b6000608082019050818103600083015261333a81876131c3565b905061334960208301866131fc565b61335660408301856131fc565b6133636060830184613054565b95945050505050565b6000602082019050818103600083015261338681846131c3565b905092915050565b600080fd5b600080fd5b600080fd5b60008083601f8401126133b3576133b261338e565b5b8235905067ffffffffffffffff8111156133d0576133cf613393565b5b6020830191508360018202830111156133ec576133eb613398565b5b9250929050565b6000806020838503121561340a57613409612fdb565b5b600083013567ffffffffffffffff81111561342857613427612fe0565b5b6134348582860161339d565b92509250509250929050565b6003811061344d57600080fd5b50565b60008135905061345f81613440565b92915050565b60006020828403121561347b5761347a612fdb565b5b600061348984828501613450565b91505092915050565b7f4e487b7100000000000000000000000000000000000000000000000000000000600052602160045260246000fd5b600381106134d2576134d1613492565b5b50565b60008190506134e3826134c1565b919050565b60006134f3826134d5565b9050919050565b613503816134e8565b82525050565b600060208201905061351e60008301846134fa565b92915050565b600080fd5b7f4e487b7100000000000000000000000000000000000000000000000000000000600052604160045260246000fd5b613561826131b2565b810181811067ffffffffffffffff821117156135805761357f613529565b5b80604052505050565b6000613593612fd1565b905061359f8282613558565b919050565b600067ffffffffffffffff8211156135bf576135be613529565b5b6135c8826131b2565b9050602081019050919050565b82818337600083830152505050565b60006135f76135f2846135a4565b613589565b90508281526020810184848401111561361357613612613524565b5b61361e8482856135d5565b509392505050565b600082601f83011261363b5761363a61338e565b5b813561364b8482602086016135e4565b91505092915050565b6000806040838503121561366b5761366a612fdb565b5b600083013567ffffffffffffffff81111561368957613688612fe0565b5b61369585828601613626565b92505060206136a68582860161309f565b9150509250929050565b7f506c61796572206e6f7420696e697469616c697a656400000000000000000000600082015250565b60006136e6601683613177565b91506136f1826136b0565b602082019050919050565b60006020820190508181036000830152613715816136d9565b9050919050565b7f496e73756666696369656e7420746f6b656e7320666f72207570677261646500600082015250565b6000613752601f83613177565b915061375d8261371c565b602082019050919050565b6000602082019050818103600083015261378181613745565b9050919050565b7f4e487b7100000000000000000000000000000000000000000000000000000000600052601160045260246000fd5b60006137c28261307e565b91506137cd8361307e565b92508282039050818111156137e5576137e4613788565b5b92915050565b60006137f68261307e565b91506138018361307e565b925082820190508082111561381957613818613788565b5b92915050565b7f4e487b7100000000000000000000000000000000000000000000000000000000600052602260045260246000fd5b6000600282049050600182168061386657607f821691505b6020821081036138795761387861381f565b5b50919050565b7f496e76616c696420726563656976657220706c61796572496420686173680000600082015250565b60006138b5601e83613177565b91506138c08261387f565b602082019050919050565b600060208201905081810360008301526138e4816138a8565b9050919050565b7f43616e6e6f742073656e6420746f6b656e7320746f20796f757273656c660000600082015250565b6000613921601e83613177565b915061392c826138eb565b602082019050919050565b6000602082019050818103600083015261395081613914565b9050919050565b7f496e73756666696369656e7420746f6b656e7300000000000000000000000000600082015250565b600061398d601383613177565b915061399882613957565b602082019050919050565b600060208201905081810360008301526139bc81613980565b9050919050565b60006040820190506139d860008301856132a4565b6139e560208301846131fc565b9392505050565b7f5370696e20636f6f6c646f776e20696e20656666656374000000000000000000600082015250565b6000613a22601783613177565b9150613a2d826139ec565b602082019050919050565b60006020820190508181036000830152613a5181613a15565b9050919050565b7f4e6f7420656e6f75676820626c6f636b73206d696e6564000000000000000000600082015250565b6000613a8e601783613177565b9150613a9982613a58565b602082019050919050565b60006020820190508181036000830152613abd81613a81565b9050919050565b7f426c6f636b68617368206e6f7420617661696c61626c65000000000000000000600082015250565b6000613afa601783613177565b9150613b0582613ac4565b602082019050919050565b60006020820190508181036000830152613b2981613aed565b9050919050565b6000819050919050565b613b4b613b4682612fe5565b613b30565b82525050565b6000613b5c826130e1565b9050919050565b60008160601b9050919050565b6000613b7b82613b63565b9050919050565b6000613b8d82613b70565b9050919050565b613ba5613ba082613b51565b613b82565b82525050565b6000819050919050565b613bc6613bc18261307e565b613bab565b82525050565b6000613bd782613b70565b9050919050565b613bef613bea82613101565b613bcc565b82525050565b6000613c018288613b3a565b602082019150613c118287613b94565b601482019150613c218286613bb5565b602082019150613c318285613bde565b601482019150613c418284613bb5565b6020820191508190509695505050505050565b6000613c608286613bde565b601482019150613c708285613bb5565b602082019150613c808284613bb5565b602082019150819050949350505050565b7f4e487b7100000000000000000000000000000000000000000000000000000000600052601260045260246000fd5b6000613ccb8261307e565b9150613cd68361307e565b925082613ce657613ce5613c91565b5b828206905092915050565b60038110613d0257613d01613492565b5b50565b6000819050613d1382613cf1565b919050565b6000613d2382613d05565b9050919050565b613d3381613d18565b82525050565b6000602082019050613d4e6000830184613d2a565b92915050565b7f506c6179657220494420616c72656164792074616b656e000000000000000000600082015250565b6000613d8a601783613177565b9150613d9582613d54565b602082019050919050565b60006020820190508181036000830152613db981613d7d565b9050919050565b7f4e6f204554482073656e74000000000000000000000000000000000000000000600082015250565b6000613df6600b83613177565b9150613e0182613dc0565b602082019050919050565b60006020820190508181036000830152613e2581613de9565b9050919050565b6000613e378261307e565b9150613e428361307e565b925082613e5257613e51613c91565b5b828204905092915050565b7f496e73756666696369656e74204554482073656e740000000000000000000000600082015250565b6000613e93601583613177565b9150613e9e82613e5d565b602082019050919050565b60006020820190508181036000830152613ec281613e86565b9050919050565b7f596f75206861766520616c7265616479207375626d697474656420796f75722060008201527f63686f6963650000000000000000000000000000000000000000000000000000602082015250565b6000613f25602683613177565b9150613f3082613ec9565b604082019050919050565b60006020820190508181036000830152613f5481613f18565b9050919050565b7f496e76616c69642063686f696365000000000000000000000000000000000000600082015250565b6000613f91600e83613177565b9150613f9c82613f5b565b602082019050919050565b60006020820190508181036000830152613fc081613f84565b9050919050565b60048110613fd857613fd7613492565b5b50565b6000819050613fe982613fc7565b919050565b6000613ff982613fdb565b9050919050565b61400981613fee565b82525050565b600381106140205761401f613492565b5b50565b60008190506140318261400f565b919050565b600061404182614023565b9050919050565b61405181614036565b82525050565b600060608201905061406c6000830186614000565b6140796020830185614000565b6140866040830184614048565b949350505050565b7f496e73756666696369656e7420746f6b656e7320746f20696e6372656173652060008201527f706f776572000000000000000000000000000000000000000000000000000000602082015250565b60006140ea602583613177565b91506140f58261408e565b604082019050919050565b60006020820190508181036000830152614119816140dd565b9050919050565b7f496e73756666696369656e74207374616b656420746f6b656e73000000000000600082015250565b6000614156601a83613177565b915061416182614120565b602082019050919050565b6000602082019050818103600083015261418581614149565b9050919050565b7f4d697373696f6e20616c726561647920636f6d706c6574656400000000000000600082015250565b60006141c2601983613177565b91506141cd8261418c565b602082019050919050565b600060208201905081810360008301526141f1816141b5565b9050919050565b7f4d697373696f6e20636f6e646974696f6e73206e6f74206d6574000000000000600082015250565b600061422e601a83613177565b9150614239826141f8565b602082019050919050565b6000602082019050818103600083015261425d81614221565b9050919050565b60008190508160005260206000209050919050565b600081546142868161384e565b6142908186613177565b945060018216600081146142ab57600181146142c1576142f4565b60ff1983168652811515602002860193506142f4565b6142ca85614264565b60005b838110156142ec578154818901526001820191506020810190506142cd565b808801955050505b50505092915050565b600060408201905081810360008301526143178185614279565b905061432660208301846131fc565b9392505050565b7f496e73756666696369656e7420746f6b656e7320746f207374616b6500000000600082015250565b6000614363601c83613177565b915061436e8261432d565b602082019050919050565b6000602082019050818103600083015261439281614356565b9050919050565b60006020601f8301049050919050565b600082821b905092915050565b6000600883026143e67fffffffffffffffffffffffffffffffffffffffffffffffffffffffffffffffff826143a9565b6143f086836143a9565b95508019841693508086168417925050509392505050565b6000819050919050565b600061442d6144286144238461307e565b614408565b61307e565b9050919050565b6000819050919050565b61444783614412565b61445b61445382614434565b8484546143b6565b825550505050565b600090565b614470614463565b61447b81848461443e565b505050565b5b8181101561449f57614494600082614468565b600181019050614481565b5050565b601f8211156144e4576144b581614264565b6144be84614399565b810160208510156144cd578190505b6144e16144d985614399565b830182614480565b50505b505050565b600082821c905092915050565b6000614507600019846008026144e9565b1980831691505092915050565b600061452083836144f6565b9150826002028217905092915050565b6145398261316c565b67ffffffffffffffff81111561455257614551613529565b5b61455c825461384e565b6145678282856144a3565b600060209050601f83116001811461459a5760008415614588578287015190505b6145928582614514565b8655506145fa565b601f1984166145a886614264565b60005b828110156145d0578489015182556001820191506020850194506020810190506145ab565b868310156145ed57848901516145e9601f8916826144f6565b8355505b6001600288020188555050505b505050505050565b6000604082019050818103600083015261461c81856131c3565b905061462b60208301846131fc565b9392505050565b7f4e6f20616374697665206368616c6c656e676520666f756e6400000000000000600082015250565b6000614668601983613177565b915061467382614632565b602082019050919050565b600060208201905081810360008301526146978161465b565b9050919050565b7f4368616c6c656e676520616c726561647920636f6d706c657465640000000000600082015250565b60006146d4601b83613177565b91506146df8261469e565b602082019050919050565b60006020820190508181036000830152614703816146c7565b9050919050565b60006147158261307e565b91507fffffffffffffffffffffffffffffffffffffffffffffffffffffffffffffffff820361474757614746613788565b5b600182019050919050565b7f496e73756666696369656e7420746f6b656e7320746f2062757920636861726160008201527f6374657200000000000000000000000000000000000000000000000000000000602082015250565b60006147ae602483613177565b91506147b982614752565b604082019050919050565b600060208201905081810360008301526147dd816147a1565b905091905056fea264697066735822122074e48b38fe8198df918a4ae9a7cef66cbc341a72e255fb3d0a8af860aed8a4a264736f6c63430008130033",
  "linkReferences": {},
  "deployedLinkReferences": {}
}