{
  "_format": "hh-sol-artifact-1",
  "contractName": "TokenGame",
  "sourceName": "contracts/TokenGame.sol",
  "abi": [
    {
      "inputs": [],
      "stateMutability": "nonpayable",
      "type": "constructor"
    },
    {
      "inputs": [
        {
          "internalType": "bytes32",
          "name": "",
          "type": "bytes32"
        }
      ],
      "name": "balances",
      "outputs": [
        {
          "internalType": "uint256",
          "name": "",
          "type": "uint256"
        }
      ],
      "stateMutability": "view",
      "type": "function"
    },
    {
      "inputs": [],
      "name": "buyCharacter",
      "outputs": [],
      "stateMutability": "nonpayable",
      "type": "function"
    },
    {
      "inputs": [],
      "name": "buyTokens",
      "outputs": [],
      "stateMutability": "payable",
      "type": "function"
    },
    {
      "inputs": [],
      "name": "characterPrice",
      "outputs": [
        {
          "internalType": "uint256",
          "name": "",
          "type": "uint256"
        }
      ],
      "stateMutability": "view",
      "type": "function"
    },
    {
      "inputs": [
        {
          "internalType": "bytes32",
          "name": "_playerIdHash",
          "type": "bytes32"
        }
      ],
      "name": "getBalance",
      "outputs": [
        {
          "internalType": "uint256",
          "name": "",
          "type": "uint256"
        }
      ],
      "stateMutability": "view",
      "type": "function"
    },
    {
      "inputs": [
        {
          "internalType": "address",
          "name": "_player",
          "type": "address"
        }
      ],
      "name": "getPlayerIdHash",
      "outputs": [
        {
          "internalType": "bytes32",
          "name": "",
          "type": "bytes32"
        }
      ],
      "stateMutability": "view",
      "type": "function"
    },
    {
      "inputs": [
        {
          "internalType": "bytes32",
          "name": "_playerIdHash",
          "type": "bytes32"
        }
      ],
      "name": "initializePlayer",
      "outputs": [],
      "stateMutability": "nonpayable",
      "type": "function"
    },
    {
      "inputs": [
        {
          "internalType": "bytes32",
          "name": "",
          "type": "bytes32"
        }
      ],
      "name": "isPlayerIdTaken",
      "outputs": [
        {
          "internalType": "bool",
          "name": "",
          "type": "bool"
        }
      ],
      "stateMutability": "view",
      "type": "function"
    },
    {
      "inputs": [
        {
          "internalType": "address",
          "name": "",
          "type": "address"
        }
      ],
      "name": "playerToPlayerId",
      "outputs": [
        {
          "internalType": "bytes32",
          "name": "",
          "type": "bytes32"
        }
      ],
      "stateMutability": "view",
      "type": "function"
    },
    {
      "inputs": [
        {
          "internalType": "bytes32",
          "name": "_receiverIdHash",
          "type": "bytes32"
        },
        {
          "internalType": "uint256",
          "name": "_amount",
          "type": "uint256"
        }
      ],
      "name": "sendTokens",
      "outputs": [],
      "stateMutability": "nonpayable",
      "type": "function"
    },
    {
      "inputs": [],
      "name": "startingBalance",
      "outputs": [
        {
          "internalType": "uint256",
          "name": "",
          "type": "uint256"
        }
      ],
      "stateMutability": "view",
      "type": "function"
    },
    {
      "inputs": [],
      "name": "tokenName",
      "outputs": [
        {
          "internalType": "string",
          "name": "",
          "type": "string"
        }
      ],
      "stateMutability": "view",
      "type": "function"
    },
    {
      "inputs": [],
      "name": "tokenPrice",
      "outputs": [
        {
          "internalType": "uint256",
          "name": "",
          "type": "uint256"
        }
      ],
      "stateMutability": "view",
      "type": "function"
    }
  ],
  "bytecode": "0x60806040526040518060400160405280600381526020017f4853520000000000000000000000000000000000000000000000000000000000815250600090816200004a9190620003a3565b506509184e72a000600155600560025560146003553480156200006c57600080fd5b5060006040516020016200008090620004e5565b604051602081830303815290604052805190602001209050600354600460008381526020019081526020016000208190555080600560003373ffffffffffffffffffffffffffffffffffffffff1673ffffffffffffffffffffffffffffffffffffffff1681526020019081526020016000208190555060016006600083815260200190815260200160002060006101000a81548160ff02191690831515021790555050620004fc565b600081519050919050565b7f4e487b7100000000000000000000000000000000000000000000000000000000600052604160045260246000fd5b7f4e487b7100000000000000000000000000000000000000000000000000000000600052602260045260246000fd5b60006002820490506001821680620001ab57607f821691505b602082108103620001c157620001c062000163565b5b50919050565b60008190508160005260206000209050919050565b60006020601f8301049050919050565b600082821b905092915050565b6000600883026200022b7fffffffffffffffffffffffffffffffffffffffffffffffffffffffffffffffff82620001ec565b620002378683620001ec565b95508019841693508086168417925050509392505050565b6000819050919050565b6000819050919050565b6000620002846200027e62000278846200024f565b62000259565b6200024f565b9050919050565b6000819050919050565b620002a08362000263565b620002b8620002af826200028b565b848454620001f9565b825550505050565b600090565b620002cf620002c0565b620002dc81848462000295565b505050565b5b818110156200030457620002f8600082620002c5565b600181019050620002e2565b5050565b601f82111562000353576200031d81620001c7565b6200032884620001dc565b8101602085101562000338578190505b620003506200034785620001dc565b830182620002e1565b50505b505050565b600082821c905092915050565b6000620003786000198460080262000358565b1980831691505092915050565b600062000393838362000365565b9150826002028217905092915050565b620003ae8262000129565b67ffffffffffffffff811115620003ca57620003c962000134565b5b620003d6825462000192565b620003e382828562000308565b600060209050601f8311600181146200041b576000841562000406578287015190505b62000412858262000385565b86555062000482565b601f1984166200042b86620001c7565b60005b8281101562000455578489015182556001820191506020850194506020810190506200042e565b8683101562000475578489015162000471601f89168262000365565b8355505b6001600288020188555050505b505050505050565b600081905092915050565b7f696e697469616c00000000000000000000000000000000000000000000000000600082015250565b6000620004cd6007836200048a565b9150620004da8262000495565b600782019050919050565b6000620004f282620004be565b9150819050919050565b610fd6806200050c6000396000f3fe6080604052600436106100c25760003560e01c80637ff9b5961161007f57806394bd2d3b1161005957806394bd2d3b146102a0578063abdef399146102cb578063bcece5eb146102f6578063d0febe4c1461030d576100c2565b80637ff9b596146101fb5780638909aa3f146102265780638e73946114610263576100c2565b80630270f2ba146100c757806314d4a4c0146101045780631bb3e1eb1461012d57806326550c6914610156578063587a558d146101935780636c02a931146101d0575b600080fd5b3480156100d357600080fd5b506100ee60048036038101906100e99190610931565b610317565b6040516100fb9190610979565b60405180910390f35b34801561011057600080fd5b5061012b600480360381019061012691906109ca565b610337565b005b34801561013957600080fd5b50610154600480360381019061014f9190610931565b610544565b005b34801561016257600080fd5b5061017d60048036038101906101789190610a68565b610632565b60405161018a9190610aa4565b60405180910390f35b34801561019f57600080fd5b506101ba60048036038101906101b59190610a68565b61067b565b6040516101c79190610aa4565b60405180910390f35b3480156101dc57600080fd5b506101e5610693565b6040516101f29190610b4f565b60405180910390f35b34801561020757600080fd5b50610210610721565b60405161021d9190610b80565b60405180910390f35b34801561023257600080fd5b5061024d60048036038101906102489190610931565b610727565b60405161025a9190610b80565b60405180910390f35b34801561026f57600080fd5b5061028a60048036038101906102859190610931565b61073f565b6040516102979190610b80565b60405180910390f35b3480156102ac57600080fd5b506102b561075c565b6040516102c29190610b80565b60405180910390f35b3480156102d757600080fd5b506102e0610762565b6040516102ed9190610b80565b60405180910390f35b34801561030257600080fd5b5061030b610768565b005b610315610833565b005b60066020528060005260406000206000915054906101000a900460ff1681565b6006600083815260200190815260200160002060009054906101000a900460ff16610397576040517f08c379a000000000000000000000000000000000000000000000000000000000815260040161038e90610be7565b60405180910390fd5b81600560003373ffffffffffffffffffffffffffffffffffffffff1673ffffffffffffffffffffffffffffffffffffffff1681526020019081526020016000205403610418576040517f08c379a000000000000000000000000000000000000000000000000000000000815260040161040f90610c53565b60405180910390fd5b8060046000600560003373ffffffffffffffffffffffffffffffffffffffff1673ffffffffffffffffffffffffffffffffffffffff1681526020019081526020016000205481526020019081526020016000205410156104ad576040517f08c379a00000000000000000000000000000000000000000000000000000000081526004016104a490610cbf565b60405180910390fd5b8060046000600560003373ffffffffffffffffffffffffffffffffffffffff1673ffffffffffffffffffffffffffffffffffffffff168152602001908152602001600020548152602001908152602001600020600082825461050f9190610d0e565b92505081905550806004600084815260200190815260200160002060008282546105399190610d42565b925050819055505050565b6006600082815260200190815260200160002060009054906101000a900460ff16156105a5576040517f08c379a000000000000000000000000000000000000000000000000000000000815260040161059c90610dc2565b60405180910390fd5b600354600460008381526020019081526020016000208190555080600560003373ffffffffffffffffffffffffffffffffffffffff1673ffffffffffffffffffffffffffffffffffffffff1681526020019081526020016000208190555060016006600083815260200190815260200160002060006101000a81548160ff02191690831515021790555050565b6000600560008373ffffffffffffffffffffffffffffffffffffffff1673ffffffffffffffffffffffffffffffffffffffff168152602001908152602001600020549050919050565b60056020528060005260406000206000915090505481565b600080546106a090610e11565b80601f01602080910402602001604051908101604052809291908181526020018280546106cc90610e11565b80156107195780601f106106ee57610100808354040283529160200191610719565b820191906000526020600020905b8154815290600101906020018083116106fc57829003601f168201915b505050505081565b60015481565b60046020528060005260406000206000915090505481565b600060046000838152602001908152602001600020549050919050565b60035481565b60025481565b6000600560003373ffffffffffffffffffffffffffffffffffffffff1673ffffffffffffffffffffffffffffffffffffffff16815260200190815260200160002054905060025460046000838152602001908152602001600020541015610804576040517f08c379a00000000000000000000000000000000000000000000000000000000081526004016107fb90610eb4565b60405180910390fd5b6002546004600083815260200190815260200160002060008282546108299190610d0e565b9250508190555050565b600154341015610878576040517f08c379a000000000000000000000000000000000000000000000000000000000815260040161086f90610f20565b60405180910390fd5b6000600154346108889190610f6f565b90508060046000600560003373ffffffffffffffffffffffffffffffffffffffff1673ffffffffffffffffffffffffffffffffffffffff16815260200190815260200160002054815260200190815260200160002060008282546108ec9190610d42565b9250508190555050565b600080fd5b6000819050919050565b61090e816108fb565b811461091957600080fd5b50565b60008135905061092b81610905565b92915050565b600060208284031215610947576109466108f6565b5b60006109558482850161091c565b91505092915050565b60008115159050919050565b6109738161095e565b82525050565b600060208201905061098e600083018461096a565b92915050565b6000819050919050565b6109a781610994565b81146109b257600080fd5b50565b6000813590506109c48161099e565b92915050565b600080604083850312156109e1576109e06108f6565b5b60006109ef8582860161091c565b9250506020610a00858286016109b5565b9150509250929050565b600073ffffffffffffffffffffffffffffffffffffffff82169050919050565b6000610a3582610a0a565b9050919050565b610a4581610a2a565b8114610a5057600080fd5b50565b600081359050610a6281610a3c565b92915050565b600060208284031215610a7e57610a7d6108f6565b5b6000610a8c84828501610a53565b91505092915050565b610a9e816108fb565b82525050565b6000602082019050610ab96000830184610a95565b92915050565b600081519050919050565b600082825260208201905092915050565b60005b83811015610af9578082015181840152602081019050610ade565b60008484015250505050565b6000601f19601f8301169050919050565b6000610b2182610abf565b610b2b8185610aca565b9350610b3b818560208601610adb565b610b4481610b05565b840191505092915050565b60006020820190508181036000830152610b698184610b16565b905092915050565b610b7a81610994565b82525050565b6000602082019050610b956000830184610b71565b92915050565b7f496e76616c696420726563656976657220706c61796572496420686173680000600082015250565b6000610bd1601e83610aca565b9150610bdc82610b9b565b602082019050919050565b60006020820190508181036000830152610c0081610bc4565b9050919050565b7f43616e6e6f742073656e6420746f6b656e7320746f20796f757273656c660000600082015250565b6000610c3d601e83610aca565b9150610c4882610c07565b602082019050919050565b60006020820190508181036000830152610c6c81610c30565b9050919050565b7f496e73756666696369656e7420746f6b656e7300000000000000000000000000600082015250565b6000610ca9601383610aca565b9150610cb482610c73565b602082019050919050565b60006020820190508181036000830152610cd881610c9c565b9050919050565b7f4e487b7100000000000000000000000000000000000000000000000000000000600052601160045260246000fd5b6000610d1982610994565b9150610d2483610994565b9250828203905081811115610d3c57610d3b610cdf565b5b92915050565b6000610d4d82610994565b9150610d5883610994565b9250828201905080821115610d7057610d6f610cdf565b5b92915050565b7f506c6179657220494420616c72656164792074616b656e000000000000000000600082015250565b6000610dac601783610aca565b9150610db782610d76565b602082019050919050565b60006020820190508181036000830152610ddb81610d9f565b9050919050565b7f4e487b7100000000000000000000000000000000000000000000000000000000600052602260045260246000fd5b60006002820490506001821680610e2957607f821691505b602082108103610e3c57610e3b610de2565b5b50919050565b7f496e73756666696369656e7420746f6b656e7320746f2062757920636861726160008201527f6374657200000000000000000000000000000000000000000000000000000000602082015250565b6000610e9e602483610aca565b9150610ea982610e42565b604082019050919050565b60006020820190508181036000830152610ecd81610e91565b9050919050565b7f496e73756666696369656e74204554482073656e740000000000000000000000600082015250565b6000610f0a601583610aca565b9150610f1582610ed4565b602082019050919050565b60006020820190508181036000830152610f3981610efd565b9050919050565b7f4e487b7100000000000000000000000000000000000000000000000000000000600052601260045260246000fd5b6000610f7a82610994565b9150610f8583610994565b925082610f9557610f94610f40565b5b82820490509291505056fea264697066735822122013ad8cb0c1425ad686374b870663da27bfe95415d49fceb2d71c10bf4ea3fd7f64736f6c63430008130033",
  "linkReferences": {},
  "deployedLinkReferences": {}
}