{
  "_format": "hh-sol-artifact-1",
  "contractName": "TokenGame",
  "sourceName": "contracts/TokenGame.sol",
  "abi": [
    {
      "anonymous": false,
      "inputs": [
        {
          "indexed": true,
          "internalType": "address",
          "name": "owner",
          "type": "address"
        },
        {
          "indexed": true,
          "internalType": "address",
          "name": "approved",
          "type": "address"
        },
        {
          "indexed": true,
          "internalType": "uint256",
          "name": "tokenId",
          "type": "uint256"
        }
      ],
      "name": "Approval",
      "type": "event"
    },
    {
      "anonymous": false,
      "inputs": [
        {
          "indexed": true,
          "internalType": "address",
          "name": "owner",
          "type": "address"
        },
        {
          "indexed": true,
          "internalType": "address",
          "name": "operator",
          "type": "address"
        },
        {
          "indexed": false,
          "internalType": "bool",
          "name": "approved",
          "type": "bool"
        }
      ],
      "name": "ApprovalForAll",
      "type": "event"
    },
    {
      "anonymous": false,
      "inputs": [
        {
          "indexed": true,
          "internalType": "address",
          "name": "buyer",
          "type": "address"
        },
        {
          "indexed": false,
          "internalType": "uint256",
          "name": "ethAmount",
          "type": "uint256"
        },
        {
          "indexed": false,
          "internalType": "uint256",
          "name": "tokenAmount",
          "type": "uint256"
        }
      ],
      "name": "TokensBought",
      "type": "event"
    },
    {
      "anonymous": false,
      "inputs": [
        {
          "indexed": true,
          "internalType": "address",
          "name": "from",
          "type": "address"
        },
        {
          "indexed": true,
          "internalType": "address",
          "name": "to",
          "type": "address"
        },
        {
          "indexed": true,
          "internalType": "uint256",
          "name": "tokenId",
          "type": "uint256"
        }
      ],
      "name": "Transfer",
      "type": "event"
    },
    {
      "inputs": [
        {
          "internalType": "address",
          "name": "to",
          "type": "address"
        },
        {
          "internalType": "uint256",
          "name": "tokenId",
          "type": "uint256"
        }
      ],
      "name": "approve",
      "outputs": [],
      "stateMutability": "nonpayable",
      "type": "function"
    },
    {
      "inputs": [
        {
          "internalType": "address",
          "name": "owner",
          "type": "address"
        }
      ],
      "name": "balanceOf",
      "outputs": [
        {
          "internalType": "uint256",
          "name": "",
          "type": "uint256"
        }
      ],
      "stateMutability": "view",
      "type": "function"
    },
    {
      "inputs": [],
      "name": "buyTokens",
      "outputs": [],
      "stateMutability": "payable",
      "type": "function"
    },
    {
      "inputs": [],
      "name": "claimTokens",
      "outputs": [],
      "stateMutability": "nonpayable",
      "type": "function"
    },
    {
      "inputs": [
        {
          "internalType": "uint256",
          "name": "_taskId",
          "type": "uint256"
        }
      ],
      "name": "completeTask",
      "outputs": [],
      "stateMutability": "nonpayable",
      "type": "function"
    },
    {
      "inputs": [
        {
          "internalType": "uint256",
          "name": "_reward",
          "type": "uint256"
        }
      ],
      "name": "createTask",
      "outputs": [],
      "stateMutability": "nonpayable",
      "type": "function"
    },
    {
      "inputs": [
        {
          "internalType": "uint256",
          "name": "tokenId",
          "type": "uint256"
        }
      ],
      "name": "getApproved",
      "outputs": [
        {
          "internalType": "address",
          "name": "",
          "type": "address"
        }
      ],
      "stateMutability": "view",
      "type": "function"
    },
    {
      "inputs": [
        {
          "internalType": "uint256",
          "name": "_taskId",
          "type": "uint256"
        }
      ],
      "name": "getTask",
      "outputs": [
        {
          "internalType": "address",
          "name": "",
          "type": "address"
        },
        {
          "internalType": "uint256",
          "name": "",
          "type": "uint256"
        },
        {
          "internalType": "bool",
          "name": "",
          "type": "bool"
        }
      ],
      "stateMutability": "view",
      "type": "function"
    },
    {
      "inputs": [],
      "name": "getTaskCount",
      "outputs": [
        {
          "internalType": "uint256",
          "name": "",
          "type": "uint256"
        }
      ],
      "stateMutability": "view",
      "type": "function"
    },
    {
      "inputs": [
        {
          "internalType": "address",
          "name": "_user",
          "type": "address"
        }
      ],
      "name": "hasClaimedTokens",
      "outputs": [
        {
          "internalType": "bool",
          "name": "",
          "type": "bool"
        }
      ],
      "stateMutability": "view",
      "type": "function"
    },
    {
      "inputs": [
        {
          "internalType": "address",
          "name": "",
          "type": "address"
        }
      ],
      "name": "hasClaimedTokensMap",
      "outputs": [
        {
          "internalType": "bool",
          "name": "",
          "type": "bool"
        }
      ],
      "stateMutability": "view",
      "type": "function"
    },
    {
      "inputs": [],
      "name": "initialize",
      "outputs": [],
      "stateMutability": "nonpayable",
      "type": "function"
    },
    {
      "inputs": [
        {
          "internalType": "address",
          "name": "owner",
          "type": "address"
        },
        {
          "internalType": "address",
          "name": "operator",
          "type": "address"
        }
      ],
      "name": "isApprovedForAll",
      "outputs": [
        {
          "internalType": "bool",
          "name": "",
          "type": "bool"
        }
      ],
      "stateMutability": "view",
      "type": "function"
    },
    {
      "inputs": [],
      "name": "loginAndReceiveTokens",
      "outputs": [],
      "stateMutability": "nonpayable",
      "type": "function"
    },
    {
      "inputs": [],
      "name": "name",
      "outputs": [
        {
          "internalType": "string",
          "name": "",
          "type": "string"
        }
      ],
      "stateMutability": "view",
      "type": "function"
    },
    {
      "inputs": [],
      "name": "owner",
      "outputs": [
        {
          "internalType": "address",
          "name": "",
          "type": "address"
        }
      ],
      "stateMutability": "view",
      "type": "function"
    },
    {
      "inputs": [
        {
          "internalType": "uint256",
          "name": "tokenId",
          "type": "uint256"
        }
      ],
      "name": "ownerOf",
      "outputs": [
        {
          "internalType": "address",
          "name": "",
          "type": "address"
        }
      ],
      "stateMutability": "view",
      "type": "function"
    },
    {
      "inputs": [
        {
          "internalType": "address",
          "name": "from",
          "type": "address"
        },
        {
          "internalType": "address",
          "name": "to",
          "type": "address"
        },
        {
          "internalType": "uint256",
          "name": "tokenId",
          "type": "uint256"
        }
      ],
      "name": "safeTransferFrom",
      "outputs": [],
      "stateMutability": "nonpayable",
      "type": "function"
    },
    {
      "inputs": [
        {
          "internalType": "address",
          "name": "from",
          "type": "address"
        },
        {
          "internalType": "address",
          "name": "to",
          "type": "address"
        },
        {
          "internalType": "uint256",
          "name": "tokenId",
          "type": "uint256"
        },
        {
          "internalType": "bytes",
          "name": "_data",
          "type": "bytes"
        }
      ],
      "name": "safeTransferFrom",
      "outputs": [],
      "stateMutability": "nonpayable",
      "type": "function"
    },
    {
      "inputs": [
        {
          "internalType": "address",
          "name": "operator",
          "type": "address"
        },
        {
          "internalType": "bool",
          "name": "approved",
          "type": "bool"
        }
      ],
      "name": "setApprovalForAll",
      "outputs": [],
      "stateMutability": "nonpayable",
      "type": "function"
    },
    {
      "inputs": [
        {
          "internalType": "bytes4",
          "name": "interfaceId",
          "type": "bytes4"
        }
      ],
      "name": "supportsInterface",
      "outputs": [
        {
          "internalType": "bool",
          "name": "",
          "type": "bool"
        }
      ],
      "stateMutability": "view",
      "type": "function"
    },
    {
      "inputs": [],
      "name": "symbol",
      "outputs": [
        {
          "internalType": "string",
          "name": "",
          "type": "string"
        }
      ],
      "stateMutability": "view",
      "type": "function"
    },
    {
      "inputs": [
        {
          "internalType": "uint256",
          "name": "",
          "type": "uint256"
        }
      ],
      "name": "tasks",
      "outputs": [
        {
          "internalType": "address",
          "name": "creator",
          "type": "address"
        },
        {
          "internalType": "uint256",
          "name": "reward",
          "type": "uint256"
        },
        {
          "internalType": "bool",
          "name": "completed",
          "type": "bool"
        }
      ],
      "stateMutability": "view",
      "type": "function"
    },
    {
      "inputs": [
        {
          "internalType": "uint256",
          "name": "tokenId",
          "type": "uint256"
        }
      ],
      "name": "tokenURI",
      "outputs": [
        {
          "internalType": "string",
          "name": "",
          "type": "string"
        }
      ],
      "stateMutability": "view",
      "type": "function"
    },
    {
      "inputs": [
        {
          "internalType": "address",
          "name": "from",
          "type": "address"
        },
        {
          "internalType": "address",
          "name": "to",
          "type": "address"
        },
        {
          "internalType": "uint256",
          "name": "tokenId",
          "type": "uint256"
        }
      ],
      "name": "transferFrom",
      "outputs": [],
      "stateMutability": "nonpayable",
      "type": "function"
    }
  ],
  "bytecode": "0x608060405234801561001057600080fd5b50613bd4806100206000396000f3fe6080604052600436106101665760003560e01c806370a08231116100d1578063b88d4fde1161008a578063d0febe4c11610064578063d0febe4c1461053e578063e1e2955814610548578063e985e9c514610571578063ed613ac1146105ae57610166565b8063b88d4fde146104ad578063c17a340e146104d6578063c87b56dd1461050157610166565b806370a082311461039b5780638129fc1c146103d85780638d977672146103ef5780638da5cb5b1461042e57806395d89b4114610459578063a22cb4651461048457610166565b806323b872dd1161012357806323b872dd1461028f57806331d66934146102b857806342842e0e146102e157806348c54b9d1461030a5780634c86ea62146103215780636352211e1461035e57610166565b806301ffc9a71461016b5780630565b219146101a857806306fdde03146101bf578063081812fc146101ea578063095ea7b3146102275780631d65e77e14610250575b600080fd5b34801561017757600080fd5b50610192600480360381019061018d9190612566565b6105eb565b60405161019f91906125ae565b60405180910390f35b3480156101b457600080fd5b506101bd6106cd565b005b3480156101cb57600080fd5b506101d46107cf565b6040516101e19190612659565b60405180910390f35b3480156101f657600080fd5b50610211600480360381019061020c91906126b1565b610861565b60405161021e919061271f565b60405180910390f35b34801561023357600080fd5b5061024e60048036038101906102499190612766565b6108e6565b005b34801561025c57600080fd5b50610277600480360381019061027291906126b1565b6109fd565b604051610286939291906127b5565b60405180910390f35b34801561029b57600080fd5b506102b660048036038101906102b191906127ec565b610ab9565b005b3480156102c457600080fd5b506102df60048036038101906102da91906126b1565b610b19565b005b3480156102ed57600080fd5b50610308600480360381019061030391906127ec565b610c31565b005b34801561031657600080fd5b5061031f610c51565b005b34801561032d57600080fd5b506103486004803603810190610343919061283f565b610d53565b60405161035591906125ae565b60405180910390f35b34801561036a57600080fd5b50610385600480360381019061038091906126b1565b610d73565b604051610392919061271f565b60405180910390f35b3480156103a757600080fd5b506103c260048036038101906103bd919061283f565b610e24565b6040516103cf919061286c565b60405180910390f35b3480156103e457600080fd5b506103ed610edb565b005b3480156103fb57600080fd5b50610416600480360381019061041191906126b1565b611069565b604051610425939291906127b5565b60405180910390f35b34801561043a57600080fd5b506104436110d0565b604051610450919061271f565b60405180910390f35b34801561046557600080fd5b5061046e6110f6565b60405161047b9190612659565b60405180910390f35b34801561049057600080fd5b506104ab60048036038101906104a691906128b3565b611188565b005b3480156104b957600080fd5b506104d460048036038101906104cf9190612a28565b611308565b005b3480156104e257600080fd5b506104eb61136a565b6040516104f8919061286c565b60405180910390f35b34801561050d57600080fd5b50610528600480360381019061052391906126b1565b611377565b6040516105359190612659565b60405180910390f35b61054661141e565b005b34801561055457600080fd5b5061056f600480360381019061056a91906126b1565b6114dd565b005b34801561057d57600080fd5b5061059860048036038101906105939190612aab565b61165f565b6040516105a591906125ae565b60405180910390f35b3480156105ba57600080fd5b506105d560048036038101906105d0919061283f565b6116f3565b6040516105e291906125ae565b60405180910390f35b60007f80ac58cd000000000000000000000000000000000000000000000000000000007bffffffffffffffffffffffffffffffffffffffffffffffffffffffff1916827bffffffffffffffffffffffffffffffffffffffffffffffffffffffff191614806106b657507f5b5e139f000000000000000000000000000000000000000000000000000000007bffffffffffffffffffffffffffffffffffffffffffffffffffffffff1916827bffffffffffffffffffffffffffffffffffffffffffffffffffffffff1916145b806106c657506106c582611749565b5b9050919050565b609960003373ffffffffffffffffffffffffffffffffffffffff1673ffffffffffffffffffffffffffffffffffffffff16815260200190815260200160002060009054906101000a900460ff161561075a576040517f08c379a000000000000000000000000000000000000000000000000000000000815260040161075190612b37565b60405180910390fd5b6001609960003373ffffffffffffffffffffffffffffffffffffffff1673ffffffffffffffffffffffffffffffffffffffff16815260200190815260200160002060006101000a81548160ff0219169083151502179055506107cd3360036098805490506107c89190612b86565b6117b3565b565b6060606580546107de90612be9565b80601f016020809104026020016040519081016040528092919081815260200182805461080a90612be9565b80156108575780601f1061082c57610100808354040283529160200191610857565b820191906000526020600020905b81548152906001019060200180831161083a57829003601f168201915b5050505050905090565b600061086c82611980565b6108ab576040517f08c379a00000000000000000000000000000000000000000000000000000000081526004016108a290612c8c565b60405180910390fd5b6069600083815260200190815260200160002060009054906101000a900473ffffffffffffffffffffffffffffffffffffffff169050919050565b60006108f182610d73565b90508073ffffffffffffffffffffffffffffffffffffffff168373ffffffffffffffffffffffffffffffffffffffff1603610961576040517f08c379a000000000000000000000000000000000000000000000000000000000815260040161095890612d1e565b60405180910390fd5b8073ffffffffffffffffffffffffffffffffffffffff166109806119ec565b73ffffffffffffffffffffffffffffffffffffffff1614806109af57506109ae816109a96119ec565b61165f565b5b6109ee576040517f08c379a00000000000000000000000000000000000000000000000000000000081526004016109e590612db0565b60405180910390fd5b6109f883836119f4565b505050565b60008060006098805490508410610a49576040517f08c379a0000000000000000000000000000000000000000000000000000000008152600401610a4090612e1c565b60405180910390fd5b600060988581548110610a5f57610a5e612e3c565b5b906000526020600020906003020190508060000160009054906101000a900473ffffffffffffffffffffffffffffffffffffffff1681600101548260020160009054906101000a900460ff16935093509350509193909250565b610aca610ac46119ec565b82611aad565b610b09576040517f08c379a0000000000000000000000000000000000000000000000000000000008152600401610b0090612edd565b60405180910390fd5b610b14838383611b8b565b505050565b60008111610b5c576040517f08c379a0000000000000000000000000000000000000000000000000000000008152600401610b5390612f49565b60405180910390fd5b609860405180606001604052803373ffffffffffffffffffffffffffffffffffffffff16815260200183815260200160001515815250908060018154018082558091505060019003906000526020600020906003020160009091909190915060008201518160000160006101000a81548173ffffffffffffffffffffffffffffffffffffffff021916908373ffffffffffffffffffffffffffffffffffffffff1602179055506020820151816001015560408201518160020160006101000a81548160ff021916908315150217905550505050565b610c4c83838360405180602001604052806000815250611308565b505050565b609960003373ffffffffffffffffffffffffffffffffffffffff1673ffffffffffffffffffffffffffffffffffffffff16815260200190815260200160002060009054906101000a900460ff1615610cde576040517f08c379a0000000000000000000000000000000000000000000000000000000008152600401610cd590612b37565b60405180910390fd5b6001609960003373ffffffffffffffffffffffffffffffffffffffff1673ffffffffffffffffffffffffffffffffffffffff16815260200190815260200160002060006101000a81548160ff021916908315150217905550610d51336001609880549050610d4c9190612b86565b6117b3565b565b60996020528060005260406000206000915054906101000a900460ff1681565b6000806067600084815260200190815260200160002060009054906101000a900473ffffffffffffffffffffffffffffffffffffffff169050600073ffffffffffffffffffffffffffffffffffffffff168173ffffffffffffffffffffffffffffffffffffffff1603610e1b576040517f08c379a0000000000000000000000000000000000000000000000000000000008152600401610e1290612fdb565b60405180910390fd5b80915050919050565b60008073ffffffffffffffffffffffffffffffffffffffff168273ffffffffffffffffffffffffffffffffffffffff1603610e94576040517f08c379a0000000000000000000000000000000000000000000000000000000008152600401610e8b9061306d565b60405180910390fd5b606860008373ffffffffffffffffffffffffffffffffffffffff1673ffffffffffffffffffffffffffffffffffffffff168152602001908152602001600020549050919050565b600060019054906101000a900460ff1680610f01575060008054906101000a900460ff16155b610f40576040517f08c379a0000000000000000000000000000000000000000000000000000000008152600401610f37906130ff565b60405180910390fd5b60008060019054906101000a900460ff161590508015610f90576001600060016101000a81548160ff02191690831515021790555060016000806101000a81548160ff0219169083151502179055505b6110046040518060400160405280600981526020017f48535220546f6b656e00000000000000000000000000000000000000000000008152506040518060400160405280600381526020017f4853520000000000000000000000000000000000000000000000000000000000815250611de6565b33609760006101000a81548173ffffffffffffffffffffffffffffffffffffffff021916908373ffffffffffffffffffffffffffffffffffffffff16021790555080156110665760008060016101000a81548160ff0219169083151502179055505b50565b6098818154811061107957600080fd5b90600052602060002090600302016000915090508060000160009054906101000a900473ffffffffffffffffffffffffffffffffffffffff16908060010154908060020160009054906101000a900460ff16905083565b609760009054906101000a900473ffffffffffffffffffffffffffffffffffffffff1681565b60606066805461110590612be9565b80601f016020809104026020016040519081016040528092919081815260200182805461113190612be9565b801561117e5780601f106111535761010080835404028352916020019161117e565b820191906000526020600020905b81548152906001019060200180831161116157829003601f168201915b5050505050905090565b6111906119ec565b73ffffffffffffffffffffffffffffffffffffffff168273ffffffffffffffffffffffffffffffffffffffff16036111fd576040517f08c379a00000000000000000000000000000000000000000000000000000000081526004016111f49061316b565b60405180910390fd5b80606a600061120a6119ec565b73ffffffffffffffffffffffffffffffffffffffff1673ffffffffffffffffffffffffffffffffffffffff16815260200190815260200160002060008473ffffffffffffffffffffffffffffffffffffffff1673ffffffffffffffffffffffffffffffffffffffff16815260200190815260200160002060006101000a81548160ff0219169083151502179055508173ffffffffffffffffffffffffffffffffffffffff166112b76119ec565b73ffffffffffffffffffffffffffffffffffffffff167f17307eab39ab6107e8899845ad3d59bd9653f200f220920489ca2b5937696c31836040516112fc91906125ae565b60405180910390a35050565b6113196113136119ec565b83611aad565b611358576040517f08c379a000000000000000000000000000000000000000000000000000000000815260040161134f90612edd565b60405180910390fd5b61136484848484611edb565b50505050565b6000609880549050905090565b606061138282611980565b6113c1576040517f08c379a00000000000000000000000000000000000000000000000000000000081526004016113b8906131fd565b60405180910390fd5b60006113cb611f37565b905060008151116113eb5760405180602001604052806000815250611416565b806113f584611f4e565b604051602001611406929190613259565b6040516020818303038152906040525b915050919050565b67016345785d8a0000341015611469576040517f08c379a0000000000000000000000000000000000000000000000000000000008152600401611460906132ef565b60405180910390fd5b60006001905061148a3360026098805490506114859190612b86565b6117b3565b3373ffffffffffffffffffffffffffffffffffffffff167f8442948036198f1146d3a63c3db355d7e0295c2cc5676c755990445da4fdc1c934836040516114d292919061330f565b60405180910390a250565b6098805490508110611524576040517f08c379a000000000000000000000000000000000000000000000000000000000815260040161151b90612e1c565b60405180910390fd5b60006098828154811061153a57611539612e3c565b5b90600052602060002090600302019050600073ffffffffffffffffffffffffffffffffffffffff168160000160009054906101000a900473ffffffffffffffffffffffffffffffffffffffff1673ffffffffffffffffffffffffffffffffffffffff16036115dd576040517f08c379a00000000000000000000000000000000000000000000000000000000081526004016115d490613384565b60405180910390fd5b8060020160009054906101000a900460ff161561162f576040517f08c379a0000000000000000000000000000000000000000000000000000000008152600401611626906133f0565b60405180910390fd5b60018160020160006101000a81548160ff02191690831515021790555061165b336098805490506117b3565b5050565b6000606a60008473ffffffffffffffffffffffffffffffffffffffff1673ffffffffffffffffffffffffffffffffffffffff16815260200190815260200160002060008373ffffffffffffffffffffffffffffffffffffffff1673ffffffffffffffffffffffffffffffffffffffff16815260200190815260200160002060009054906101000a900460ff16905092915050565b6000609960008373ffffffffffffffffffffffffffffffffffffffff1673ffffffffffffffffffffffffffffffffffffffff16815260200190815260200160002060009054906101000a900460ff169050919050565b60007f01ffc9a7000000000000000000000000000000000000000000000000000000007bffffffffffffffffffffffffffffffffffffffffffffffffffffffff1916827bffffffffffffffffffffffffffffffffffffffffffffffffffffffff1916149050919050565b600073ffffffffffffffffffffffffffffffffffffffff168273ffffffffffffffffffffffffffffffffffffffff1603611822576040517f08c379a00000000000000000000000000000000000000000000000000000000081526004016118199061345c565b60405180910390fd5b61182b81611980565b1561186b576040517f08c379a0000000000000000000000000000000000000000000000000000000008152600401611862906134c8565b60405180910390fd5b611877600083836120ae565b6001606860008473ffffffffffffffffffffffffffffffffffffffff1673ffffffffffffffffffffffffffffffffffffffff16815260200190815260200160002060008282546118c79190612b86565b92505081905550816067600083815260200190815260200160002060006101000a81548173ffffffffffffffffffffffffffffffffffffffff021916908373ffffffffffffffffffffffffffffffffffffffff160217905550808273ffffffffffffffffffffffffffffffffffffffff16600073ffffffffffffffffffffffffffffffffffffffff167fddf252ad1be2c89b69c2b068fc378daa952ba7f163c4a11628f55a4df523b3ef60405160405180910390a45050565b60008073ffffffffffffffffffffffffffffffffffffffff166067600084815260200190815260200160002060009054906101000a900473ffffffffffffffffffffffffffffffffffffffff1673ffffffffffffffffffffffffffffffffffffffff1614159050919050565b600033905090565b816069600083815260200190815260200160002060006101000a81548173ffffffffffffffffffffffffffffffffffffffff021916908373ffffffffffffffffffffffffffffffffffffffff160217905550808273ffffffffffffffffffffffffffffffffffffffff16611a6783610d73565b73ffffffffffffffffffffffffffffffffffffffff167f8c5be1e5ebec7d5bd14f71427d1e84f3dd0314c0f7b2291e5b200ac8c7c3b92560405160405180910390a45050565b6000611ab882611980565b611af7576040517f08c379a0000000000000000000000000000000000000000000000000000000008152600401611aee9061355a565b60405180910390fd5b6000611b0283610d73565b90508073ffffffffffffffffffffffffffffffffffffffff168473ffffffffffffffffffffffffffffffffffffffff161480611b7157508373ffffffffffffffffffffffffffffffffffffffff16611b5984610861565b73ffffffffffffffffffffffffffffffffffffffff16145b80611b825750611b81818561165f565b5b91505092915050565b8273ffffffffffffffffffffffffffffffffffffffff16611bab82610d73565b73ffffffffffffffffffffffffffffffffffffffff1614611c01576040517f08c379a0000000000000000000000000000000000000000000000000000000008152600401611bf8906135ec565b60405180910390fd5b600073ffffffffffffffffffffffffffffffffffffffff168273ffffffffffffffffffffffffffffffffffffffff1603611c70576040517f08c379a0000000000000000000000000000000000000000000000000000000008152600401611c679061367e565b60405180910390fd5b611c7b8383836120ae565b611c866000826119f4565b6001606860008573ffffffffffffffffffffffffffffffffffffffff1673ffffffffffffffffffffffffffffffffffffffff1681526020019081526020016000206000828254611cd6919061369e565b925050819055506001606860008473ffffffffffffffffffffffffffffffffffffffff1673ffffffffffffffffffffffffffffffffffffffff1681526020019081526020016000206000828254611d2d9190612b86565b92505081905550816067600083815260200190815260200160002060006101000a81548173ffffffffffffffffffffffffffffffffffffffff021916908373ffffffffffffffffffffffffffffffffffffffff160217905550808273ffffffffffffffffffffffffffffffffffffffff168473ffffffffffffffffffffffffffffffffffffffff167fddf252ad1be2c89b69c2b068fc378daa952ba7f163c4a11628f55a4df523b3ef60405160405180910390a4505050565b600060019054906101000a900460ff1680611e0c575060008054906101000a900460ff16155b611e4b576040517f08c379a0000000000000000000000000000000000000000000000000000000008152600401611e42906130ff565b60405180910390fd5b60008060019054906101000a900460ff161590508015611e9b576001600060016101000a81548160ff02191690831515021790555060016000806101000a81548160ff0219169083151502179055505b611ea36120b3565b611eab61218c565b611eb58383612265565b8015611ed65760008060016101000a81548160ff0219169083151502179055505b505050565b611ee6848484611b8b565b611ef284848484612360565b611f31576040517f08c379a0000000000000000000000000000000000000000000000000000000008152600401611f2890613744565b60405180910390fd5b50505050565b606060405180602001604052806000815250905090565b606060008203611f95576040518060400160405280600181526020017f300000000000000000000000000000000000000000000000000000000000000081525090506120a9565b600082905060005b60008214611fc7578080611fb090613764565b915050600a82611fc091906137db565b9150611f9d565b60008167ffffffffffffffff811115611fe357611fe26128fd565b5b6040519080825280601f01601f1916602001820160405280156120155781602001600182028036833780820191505090505b5090505b600085146120a25760018261202e919061369e565b9150600a8561203d919061380c565b60306120499190612b86565b60f81b81838151811061205f5761205e612e3c565b5b60200101907effffffffffffffffffffffffffffffffffffffffffffffffffffffffffffff1916908160001a905350600a8561209b91906137db565b9450612019565b8093505050505b919050565b505050565b600060019054906101000a900460ff16806120d9575060008054906101000a900460ff16155b612118576040517f08c379a000000000000000000000000000000000000000000000000000000000815260040161210f906130ff565b60405180910390fd5b60008060019054906101000a900460ff161590508015612168576001600060016101000a81548160ff02191690831515021790555060016000806101000a81548160ff0219169083151502179055505b80156121895760008060016101000a81548160ff0219169083151502179055505b50565b600060019054906101000a900460ff16806121b2575060008054906101000a900460ff16155b6121f1576040517f08c379a00000000000000000000000000000000000000000000000000000000081526004016121e8906130ff565b60405180910390fd5b60008060019054906101000a900460ff161590508015612241576001600060016101000a81548160ff02191690831515021790555060016000806101000a81548160ff0219169083151502179055505b80156122625760008060016101000a81548160ff0219169083151502179055505b50565b600060019054906101000a900460ff168061228b575060008054906101000a900460ff16155b6122ca576040517f08c379a00000000000000000000000000000000000000000000000000000000081526004016122c1906130ff565b60405180910390fd5b60008060019054906101000a900460ff16159050801561231a576001600060016101000a81548160ff02191690831515021790555060016000806101000a81548160ff0219169083151502179055505b826065908161232991906139e9565b50816066908161233991906139e9565b50801561235b5760008060016101000a81548160ff0219169083151502179055505b505050565b60006123818473ffffffffffffffffffffffffffffffffffffffff166124e7565b156124da578373ffffffffffffffffffffffffffffffffffffffff1663150b7a026123aa6119ec565b8786866040518563ffffffff1660e01b81526004016123cc9493929190613b10565b6020604051808303816000875af192505050801561240857506040513d601f19601f820116820180604052508101906124059190613b71565b60015b61248a573d8060008114612438576040519150601f19603f3d011682016040523d82523d6000602084013e61243d565b606091505b506000815103612482576040517f08c379a000000000000000000000000000000000000000000000000000000000815260040161247990613744565b60405180910390fd5b805181602001fd5b63150b7a0260e01b7bffffffffffffffffffffffffffffffffffffffffffffffffffffffff1916817bffffffffffffffffffffffffffffffffffffffffffffffffffffffff1916149150506124df565b600190505b949350505050565b600080823b905060008111915050919050565b6000604051905090565b600080fd5b600080fd5b60007fffffffff0000000000000000000000000000000000000000000000000000000082169050919050565b6125438161250e565b811461254e57600080fd5b50565b6000813590506125608161253a565b92915050565b60006020828403121561257c5761257b612504565b5b600061258a84828501612551565b91505092915050565b60008115159050919050565b6125a881612593565b82525050565b60006020820190506125c3600083018461259f565b92915050565b600081519050919050565b600082825260208201905092915050565b60005b838110156126035780820151818401526020810190506125e8565b60008484015250505050565b6000601f19601f8301169050919050565b600061262b826125c9565b61263581856125d4565b93506126458185602086016125e5565b61264e8161260f565b840191505092915050565b600060208201905081810360008301526126738184612620565b905092915050565b6000819050919050565b61268e8161267b565b811461269957600080fd5b50565b6000813590506126ab81612685565b92915050565b6000602082840312156126c7576126c6612504565b5b60006126d58482850161269c565b91505092915050565b600073ffffffffffffffffffffffffffffffffffffffff82169050919050565b6000612709826126de565b9050919050565b612719816126fe565b82525050565b60006020820190506127346000830184612710565b92915050565b612743816126fe565b811461274e57600080fd5b50565b6000813590506127608161273a565b92915050565b6000806040838503121561277d5761277c612504565b5b600061278b85828601612751565b925050602061279c8582860161269c565b9150509250929050565b6127af8161267b565b82525050565b60006060820190506127ca6000830186612710565b6127d760208301856127a6565b6127e4604083018461259f565b949350505050565b60008060006060848603121561280557612804612504565b5b600061281386828701612751565b935050602061282486828701612751565b92505060406128358682870161269c565b9150509250925092565b60006020828403121561285557612854612504565b5b600061286384828501612751565b91505092915050565b600060208201905061288160008301846127a6565b92915050565b61289081612593565b811461289b57600080fd5b50565b6000813590506128ad81612887565b92915050565b600080604083850312156128ca576128c9612504565b5b60006128d885828601612751565b92505060206128e98582860161289e565b9150509250929050565b600080fd5b600080fd5b7f4e487b7100000000000000000000000000000000000000000000000000000000600052604160045260246000fd5b6129358261260f565b810181811067ffffffffffffffff82111715612954576129536128fd565b5b80604052505050565b60006129676124fa565b9050612973828261292c565b919050565b600067ffffffffffffffff821115612993576129926128fd565b5b61299c8261260f565b9050602081019050919050565b82818337600083830152505050565b60006129cb6129c684612978565b61295d565b9050828152602081018484840111156129e7576129e66128f8565b5b6129f28482856129a9565b509392505050565b600082601f830112612a0f57612a0e6128f3565b5b8135612a1f8482602086016129b8565b91505092915050565b60008060008060808587031215612a4257612a41612504565b5b6000612a5087828801612751565b9450506020612a6187828801612751565b9350506040612a728782880161269c565b925050606085013567ffffffffffffffff811115612a9357612a92612509565b5b612a9f878288016129fa565b91505092959194509250565b60008060408385031215612ac257612ac1612504565b5b6000612ad085828601612751565b9250506020612ae185828601612751565b9150509250929050565b7f546f6b656e7320616c726561647920636c61696d656400000000000000000000600082015250565b6000612b216016836125d4565b9150612b2c82612aeb565b602082019050919050565b60006020820190508181036000830152612b5081612b14565b9050919050565b7f4e487b7100000000000000000000000000000000000000000000000000000000600052601160045260246000fd5b6000612b918261267b565b9150612b9c8361267b565b9250828201905080821115612bb457612bb3612b57565b5b92915050565b7f4e487b7100000000000000000000000000000000000000000000000000000000600052602260045260246000fd5b60006002820490506001821680612c0157607f821691505b602082108103612c1457612c13612bba565b5b50919050565b7f4552433732313a20617070726f76656420717565727920666f72206e6f6e657860008201527f697374656e7420746f6b656e0000000000000000000000000000000000000000602082015250565b6000612c76602c836125d4565b9150612c8182612c1a565b604082019050919050565b60006020820190508181036000830152612ca581612c69565b9050919050565b7f4552433732313a20617070726f76616c20746f2063757272656e74206f776e6560008201527f7200000000000000000000000000000000000000000000000000000000000000602082015250565b6000612d086021836125d4565b9150612d1382612cac565b604082019050919050565b60006020820190508181036000830152612d3781612cfb565b9050919050565b7f4552433732313a20617070726f76652063616c6c6572206973206e6f74206f7760008201527f6e6572206e6f7220617070726f76656420666f7220616c6c0000000000000000602082015250565b6000612d9a6038836125d4565b9150612da582612d3e565b604082019050919050565b60006020820190508181036000830152612dc981612d8d565b9050919050565b7f5461736b20494420697320696e76616c69640000000000000000000000000000600082015250565b6000612e066012836125d4565b9150612e1182612dd0565b602082019050919050565b60006020820190508181036000830152612e3581612df9565b9050919050565b7f4e487b7100000000000000000000000000000000000000000000000000000000600052603260045260246000fd5b7f4552433732313a207472616e736665722063616c6c6572206973206e6f74206f60008201527f776e6572206e6f7220617070726f766564000000000000000000000000000000602082015250565b6000612ec76031836125d4565b9150612ed282612e6b565b604082019050919050565b60006020820190508181036000830152612ef681612eba565b9050919050565b7f526577617264206d7573742062652067726561746572207468616e2030000000600082015250565b6000612f33601d836125d4565b9150612f3e82612efd565b602082019050919050565b60006020820190508181036000830152612f6281612f26565b9050919050565b7f4552433732313a206f776e657220717565727920666f72206e6f6e657869737460008201527f656e7420746f6b656e0000000000000000000000000000000000000000000000602082015250565b6000612fc56029836125d4565b9150612fd082612f69565b604082019050919050565b60006020820190508181036000830152612ff481612fb8565b9050919050565b7f4552433732313a2062616c616e636520717565727920666f7220746865207a6560008201527f726f206164647265737300000000000000000000000000000000000000000000602082015250565b6000613057602a836125d4565b915061306282612ffb565b604082019050919050565b600060208201905081810360008301526130868161304a565b9050919050565b7f496e697469616c697a61626c653a20636f6e747261637420697320616c72656160008201527f647920696e697469616c697a6564000000000000000000000000000000000000602082015250565b60006130e9602e836125d4565b91506130f48261308d565b604082019050919050565b60006020820190508181036000830152613118816130dc565b9050919050565b7f4552433732313a20617070726f766520746f2063616c6c657200000000000000600082015250565b60006131556019836125d4565b91506131608261311f565b602082019050919050565b6000602082019050818103600083015261318481613148565b9050919050565b7f4552433732314d657461646174613a2055524920717565727920666f72206e6f60008201527f6e6578697374656e7420746f6b656e0000000000000000000000000000000000602082015250565b60006131e7602f836125d4565b91506131f28261318b565b604082019050919050565b60006020820190508181036000830152613216816131da565b9050919050565b600081905092915050565b6000613233826125c9565b61323d818561321d565b935061324d8185602086016125e5565b80840191505092915050565b60006132658285613228565b91506132718284613228565b91508190509392505050565b7f45544820616d6f756e74206d757374206265206174206c6561737420302e312060008201527f4554480000000000000000000000000000000000000000000000000000000000602082015250565b60006132d96023836125d4565b91506132e48261327d565b604082019050919050565b60006020820190508181036000830152613308816132cc565b9050919050565b600060408201905061332460008301856127a6565b61333160208301846127a6565b9392505050565b7f5461736b20646f6573206e6f7420657869737400000000000000000000000000600082015250565b600061336e6013836125d4565b915061337982613338565b602082019050919050565b6000602082019050818103600083015261339d81613361565b9050919050565b7f5461736b20616c726561647920636f6d706c6574656400000000000000000000600082015250565b60006133da6016836125d4565b91506133e5826133a4565b602082019050919050565b60006020820190508181036000830152613409816133cd565b9050919050565b7f4552433732313a206d696e7420746f20746865207a65726f2061646472657373600082015250565b60006134466020836125d4565b915061345182613410565b602082019050919050565b6000602082019050818103600083015261347581613439565b9050919050565b7f4552433732313a20746f6b656e20616c7265616479206d696e74656400000000600082015250565b60006134b2601c836125d4565b91506134bd8261347c565b602082019050919050565b600060208201905081810360008301526134e1816134a5565b9050919050565b7f4552433732313a206f70657261746f7220717565727920666f72206e6f6e657860008201527f697374656e7420746f6b656e0000000000000000000000000000000000000000602082015250565b6000613544602c836125d4565b915061354f826134e8565b604082019050919050565b6000602082019050818103600083015261357381613537565b9050919050565b7f4552433732313a207472616e73666572206f6620746f6b656e2074686174206960008201527f73206e6f74206f776e0000000000000000000000000000000000000000000000602082015250565b60006135d66029836125d4565b91506135e18261357a565b604082019050919050565b60006020820190508181036000830152613605816135c9565b9050919050565b7f4552433732313a207472616e7366657220746f20746865207a65726f2061646460008201527f7265737300000000000000000000000000000000000000000000000000000000602082015250565b60006136686024836125d4565b91506136738261360c565b604082019050919050565b600060208201905081810360008301526136978161365b565b9050919050565b60006136a98261267b565b91506136b48361267b565b92508282039050818111156136cc576136cb612b57565b5b92915050565b7f4552433732313a207472616e7366657220746f206e6f6e20455243373231526560008201527f63656976657220696d706c656d656e7465720000000000000000000000000000602082015250565b600061372e6032836125d4565b9150613739826136d2565b604082019050919050565b6000602082019050818103600083015261375d81613721565b9050919050565b600061376f8261267b565b91507fffffffffffffffffffffffffffffffffffffffffffffffffffffffffffffffff82036137a1576137a0612b57565b5b600182019050919050565b7f4e487b7100000000000000000000000000000000000000000000000000000000600052601260045260246000fd5b60006137e68261267b565b91506137f18361267b565b925082613801576138006137ac565b5b828204905092915050565b60006138178261267b565b91506138228361267b565b925082613832576138316137ac565b5b828206905092915050565b60008190508160005260206000209050919050565b60006020601f8301049050919050565b600082821b905092915050565b60006008830261389f7fffffffffffffffffffffffffffffffffffffffffffffffffffffffffffffffff82613862565b6138a98683613862565b95508019841693508086168417925050509392505050565b6000819050919050565b60006138e66138e16138dc8461267b565b6138c1565b61267b565b9050919050565b6000819050919050565b613900836138cb565b61391461390c826138ed565b84845461386f565b825550505050565b600090565b61392961391c565b6139348184846138f7565b505050565b5b818110156139585761394d600082613921565b60018101905061393a565b5050565b601f82111561399d5761396e8161383d565b61397784613852565b81016020851015613986578190505b61399a61399285613852565b830182613939565b50505b505050565b600082821c905092915050565b60006139c0600019846008026139a2565b1980831691505092915050565b60006139d983836139af565b9150826002028217905092915050565b6139f2826125c9565b67ffffffffffffffff811115613a0b57613a0a6128fd565b5b613a158254612be9565b613a2082828561395c565b600060209050601f831160018114613a535760008415613a41578287015190505b613a4b85826139cd565b865550613ab3565b601f198416613a618661383d565b60005b82811015613a8957848901518255600182019150602085019450602081019050613a64565b86831015613aa65784890151613aa2601f8916826139af565b8355505b6001600288020188555050505b505050505050565b600081519050919050565b600082825260208201905092915050565b6000613ae282613abb565b613aec8185613ac6565b9350613afc8185602086016125e5565b613b058161260f565b840191505092915050565b6000608082019050613b256000830187612710565b613b326020830186612710565b613b3f60408301856127a6565b8181036060830152613b518184613ad7565b905095945050505050565b600081519050613b6b8161253a565b92915050565b600060208284031215613b8757613b86612504565b5b6000613b9584828501613b5c565b9150509291505056fea264697066735822122026d3bc8107c547437a1d0fef4f20a43808b1fcc37b99d4123e58bf838712a2aa64736f6c63430008130033",
  "linkReferences": {},
  "deployedLinkReferences": {}
}